:020000040800F2
:1000000000000220B15A0108AF5A0108AD5A010898
:10001000AD5A0108AD5A0108AD5A010800000000B0
:10002000000000000000000000000000AF5A0108BE
:10003000AF5A010800000000AF5A01083733010829
:10004000AD5A0108AD5A0108AD5A0108AD5A010870
:10005000AD5A0108AD5A0108AD5A0108AD5A010860
:10006000AD5A0108AD5A0108AD5A0108AD5A010850
:10007000AD5A0108AD5A0108AD5A0108AD5A010840
:10008000AD5A0108AD5A0108AD5A0108AD5A010830
:10009000AD5A0108AD5A0108AD5A0108AD5A010820
:1000A000AD5A0108AD5A0108AD5A0108AD5A010810
:1000B000AD5A0108F9300108AD5A0108AD5A0108DE
:1000C000AD5A0108AD5A0108AD5A0108AD5A0108F0
:1000D000AD5A0108E9440108AD5A0108AD5A0108BA
:1000E000AD5A0108AD5A0108AD5A0108AD5A0108D0
:1000F000AD5A0108AD5A0108AD5A0108AD5A0108C0
:10010000AD5A0108AD5A0108AD5A0108AD5A0108AF
:10011000AD5A0108AD5A0108AD5A0108AD5A01089F
:10012000AD5A0108AD5A0108AD5A0108AD5A01088F
:10013000AD5A0108AD5A0108AD5A0108AD5A01087F
:10014000AD5A0108AD5A0108AD5A0108693D0108D0
:100150006D450108AD5A010815450108AD5A010861
:10016000AD5A0108AD5A0108AD5A0108AD5A01084F
:10017000AD5A0108AD5A0108AD5A0108AD5A01083F
:10018000AD5A0108AD5A0108AD5A0108AD5A01082F
:10019000AD5A0108AD5A0108AD5A0108AD5A01081F
:1001A000AD5A0108AD5A0108AD5A010883681847D5
:1001B000C3680021184710B40469A4465DF8044BD5
:1001C000604743689B69184710B404691346A44606
:1001D0000A465DF8044B0021604713B543681C6A6A
:1001E00004230A460DEB0301A047019802B010BD9D
:1001F0000268013A01D00260704718F025BF90F8FC
:10020000302012B1436904211847D1E773B5044681
:100210000B4606690D4608220021B04794F82930A4
:10022000072B0ED1084B20215B6801A89847E36893
:1002300001212046984726692B46082200212046A6
:10024000B04702B070BD00BFC00F002070B50D46B2
:10025000017A044605F0F0031646406843EA01615E
:10026000FFF7D4FF606832462946BDE87040ABE72F
:1002700038B50D46017A044605F0F00343EA016102
:100280004068FFF7C3FF60682946BDE838408DE746
:100290001FB543680A461C6A69461023A0479DF8AB
:1002A00008309DF804209DF80C001B0443EA02234B
:1002B0009DF80020134343EA006004B010BD0368BA
:1002C0001BB941680A6801320A6001330360704754
:1002D0000368013B10B5044603603BB94068FFF773
:1002E00087FF2046BDE8104018F0AEBE10BD70B5C7
:1002F0000C4601F57D610646FFF7CAFF04F57E61F5
:1003000005463046FFF7C4FF294670BD2DE9F34787
:1003100021F47F6525F00F0504461646002D00F0F8
:100320009F8005F57F61FFF7B3FF0190606890F84B
:100330002970002F40F09480FFF73AFF002840F02A
:100340008F80019B4E4A23F47043934240F0888093
:10035000019B29462046C3F30338FFF7C8FF030378
:1003600013D50B0203F47063C0F306321343B3F5E5
:10037000846FC0F30B0903D040F25552934222D14F
:10038000B8F1010F6CD1202308E0B8F1010F67D15B
:10039000C0F3063343F40043C0F30B09002E3FD1F2
:1003A0002384A4F82290226A364B9A4238D13649E7
:1003B0002046FFF712FFC20332D5204602B0BDE847
:1003C000F04703F045B9B8F1010FE7D040F23B42E6
:1003D000934203D040F67522934241D1B8F1090F00
:1003E00041D105F6CC712046FFF7F7FE05F6BC714A
:1003F000C7B22046FFF7F1FE034610F4801000D08C
:1004000098B2224B9A79032A2AD01988494505D1F6
:100410009978B94202D19988814226D00833F1E710
:10042000DFF86CA005F57069A84601366068FFF733
:10043000BFFE41462046FFF7D0FE07466068FFF743
:10044000B7FE68B967B1FB0706D507EA0A0132466D
:1004500029442046FFF75AFF08F10408C845E5D1B2
:1004600002B0BDE8F0870020CBE7012AA5D0022A20
:10047000F6D12946204602B0BDE8F04702F026B882
:100480000D0005B11F00D00C0021004116BA010873
:1004900000F0FFFF70B58AB0242205460C4601A883
:1004A000002119F069F94FF4FE7101A802958DF849
:1004B0000C40FFF786FE4FF4FC71049001A8FFF793
:1004C00080FE0590013012D0049B83B14FF48071FF
:1004D00001A8FFF776FE0E4B034043F0004306935E
:1004E000030604D4242018F0A7FD064618B90026F8
:1004F00030460AB070BD01AC05460FCC0FC50FCC1D
:100500000FC523682B603046FFF7D9FEF0E700BF28
:10051000C87FFFBF70B59EB00023029303934FF0D6
:10052000FF330593104B01901A681D9206A803AA89
:100530001A6019F0D7F9044620B90B4D03AE2B68A9
:10054000B34203D0039B5BB100200AE0234601982D
:1005500022460121FFF72FFE02901D9B2B60EEE744
:1005600002981EB070BD00BFDC070020012A70B5E4
:10057000446905460E4614D0023A012A94BF44F05D
:10058000120244F010026B682846DB694FF4807158
:100590009847686833464FF48272BDE87040002186
:1005A00009E644F01102EEE7012B0ED007D9991E9F
:1005B000012910D9012202FA03F31844704701F00F
:1005C0000301C900CA400270F4E701F00201C9004A
:1005D000CA400280EEE70260ECE72DE9F74F0E46D5
:1005E00099071546074602F0030237D0DC4304F0B2
:1005F00001042AB1EA4302F001029442A8BF144662
:100600005FFA84F9E3404A46294638460093FFF7EB
:10061000ADFF002378684FF486720121FFF7CBFD10
:100620000123A340DDF800A00193AB46A846BAF130
:10063000010A78681BD1009B013B03FA04F40C22E9
:1006400053460121FFF7B7FD2C4402464B46214695
:10065000304603B0BDE8F04FFFF7A6BF2AB1EA432A
:1006600002F001023BB30224C7E70222FAE70023AB
:100670004FF486720121FFF79EFD4B46024641462C
:100680003046FFF791FF019B98448BEA0803B3F5CE
:10069000806F0646CBD343464FF4827200217868C0
:1006A000FFF789FD786800234FF486720121FFF778
:1006B00082FDC346BBE703B0BDE8F08F30B523B180
:1006C000012B0DD00868106006E00D7800F00304DF
:1006D000E40005FA04F4146001209840084430BD99
:1006E0000D8800F00204F3E72DE9F74F9DF8308004
:1006F000154642460C46064623FA08F7FFF736FF32
:100700004FF0010909FA08F9A2464FF0000B2FB982
:1007100070680C2103B0BDE8F04F47E52946434619
:1007200001AA2046CDF804B0FFF7C8FF4C44019B56
:1007300005464FF4867270680021FFF73CFD8AEA97
:100740000403B3F5806F07D3706823464FF48272B9
:100750000021FFF730FDA246013FD8E773B59D07A2
:100760001ABFDD4305F0010502258C071ABFCC43F3
:1007700004F0010402244668A542D4BF0095009409
:10078000746AA04702B070BDAA4B428E2DE9F04FAB
:10079000C361A94B8361A94B0362A94B436240F239
:1007A0003B439A4285B0044603D1838EB3F53A4F5A
:1007B00021D02046FFF7AEFE28B9204605B0BDE89F
:1007C000F04F18F041BCC0F3460100F470630B43D6
:1007D000C0F30751C0F30332A186C0F3004184F88F
:1007E0003020638684F8311013B10AB1C00702D4F7
:1007F00000232363A3862046FFF701FD94F83030E1
:10080000012B21D9022208212046FFF7DDFC04211B
:100810002046FFF7CBFC0022054608212046FFF7C3
:10082000D3FC05F47063C5F346021343E3862B0B38
:10083000238725F0704594F82A3025F0010545EA14
:10084000037545F00105E562628E40F613139A4286
:100850000FD1A38E022B0CD12421012019F032FAE2
:10086000002800F04E81446005B0BDE8F04F0AF06A
:10087000BBBFFA2101A812F023FD0022042120466B
:10088000FFF7A2FC4FF0204515F0204F09D00421BE
:100890002046FFF78BFC054601A812F01CFD00283E
:1008A000F2D0C92101A812F00BFD4FF0A0420421A3
:1008B0002046FFF789FC0A2012F030FD0421204673
:1008C000FFF774FC00F02040B0F1204F21D1E38EFF
:1008D000152B02D1204608F089F82368DFF878B19B
:1008E00001334FF000082360C1465FFA88F12046CB
:1008F000FFF7D0FD054690B9204609F10109FFF741
:100900007EFCB9F1080F5DD1204605B0BDE8F04F7F
:100910006EE401A812F0DFFC0028CCD04DE708F00F
:10092000FDFD284609F042FC284603F0C5FD284697
:1009300008F08CF92E7A002E37D1EB68C3F34332DE
:10094000082A32D103F00F03012B2ED1042168684D
:10095000DFF808A1FFF72AFCDAF80010074603A821
:1009600012F0AEFC6A696B6842F00202DB694FF478
:10097000807128469847334B68684FF4827231463D
:10098000FFF719FC304B68684FF486723146FFF769
:1009900012FC68680C21FFF709FC47F47F0747F455
:1009A000704703A812F097FC90B12969274F0022E5
:1009B0002846FFF7ABFCDBF80060002E79D1284613
:1009C000FFF786FC08F10108B8F5807F8DD19BE721
:1009D000686890F8311019B93B460422FFF7EBFB29
:1009E0001B4B68684FF486720021FFF7E4FB00237D
:1009F0004FF4867268680121FFF7DDFB03466868E3
:100A000090F831202AB100230C220121FFF7D3FBFB
:100A10000346591CC5D023F07F6222F00F12002A32
:100A2000BFD19A011CD5DEB90A4B1B78DBB9012670
:100A3000B7E700BF4D02000871020008DB0500089F
:100A4000E9060008F0ED00E001005FA03918000899
:100A500003005FA0D8070020D80E0020000000206F
:100A6000294A9A439DD16B682849002683F829605A
:100A70002846FFF7B2FB264B2449A86102AA02933D
:100A800028460423FFF76AFEDAF8001003A812F0E4
:100A900017FC304612F0A0F91E4E31462846FFF7EB
:100AA0009CFB830181D503A812F015FC0028F4D02B
:100AB0007BE7194AD6F8F43092F800A0BAF1000F9B
:100AC0000AD1BB421AD1304600F0B2FE854203D1B2
:100AD0005146304611F0F5FDD6F8F430BB420DD149
:100AE000304600F0A5FE854208D10C49706F15F024
:100AF00007FE18B12846FFF7EBFB05E7D6F8EC60D8
:100B00005BE705B0BDE8F08F01000200FCED00E0FE
:100B100001040001F0ED00E0D807002010BA010840
:100B200013B54B0F0446C900CDE9001390F8280017
:100B3000082105F0EBFA94F8280023236A460021E7
:100B400005F020FB02B010BDF0B5003918BF01213F
:100B50000546580F41EAC303510801F006010B4353
:100B600087B012F4807FCDE9023008BF0A2195F8E2
:100B7000280018BF0B2105F0C9FAFA2101A812F0CC
:100B80009FFB95F82800232302AA04A905F0FAFA8E
:100B9000DDE9044701A804F0070612F09CFB38B910
:100BA000012EEED0022E0ED1E00840EA477008E098
:100BB000012EF7D128466B693146984785F82960A0
:100BC000002007B0F0BD0249012003F0A7FCEBE7CD
:100BD000AEBC010810B50A46044600230121FFF708
:100BE000B3FF20460023BDE810400C220121FFF78F
:100BF000ABBF38B50421836804469847054B256987
:100C00000021034084F8291004222046A84700F060
:100C1000320038BD320000F038B53C2105460120D5
:100C200019F050F8044620B3124B8360124BC36096
:100C3000124B0361124B80F8285043612D01114B78
:100C40005B5903F47062C3F34601C3F30F330A43E5
:100C5000B3F53A4F4286838607D10021FFF7C9FFDB
:100C60002046BDE83840FFF78FBD0421FFF758FF4D
:100C7000F6E738BDD50B0008F30B0008490B000858
:100C8000210B0008C008002010B404691346A446D4
:100C90000A465DF8044B0021604770B5084D0446D4
:100CA000AB6820214FF0FF309847002CAB6808BF9D
:100CB0001C21BDE8704018BF20216FF0704018471C
:100CC000C00F00200A460021DEE773B5044600236A
:100CD0000A4606690D460121B04794F82930072BD2
:100CE0000ED1084B20215B6801A89847E3680121D9
:100CF00020469847266900232A4601212046B0470E
:100D000002B070BDC00F0020CB0570B504460AD5F7
:100D1000FFF7DBFF25692046AC460023BDE87040A5
:100D20000C2201216047BDE87040CEE711F4807FBE
:100D30000CBF8123A32308B183F0240301F00C012D
:100D400043EA41004FF48873CB40DB0744BF80F097
:100D50002000C0B2704770B50C4D0E460146002011
:100D6000FFF7E4FFAB68082198472B6803209847FA
:100D7000EB680446202130469847AB6808210020E4
:100D80009847E0B2013818BF012070BDC00F0020A5
:100D900073B50E4E01460120FFF7C8FFB368082166
:100DA00098473368032098470024736801940546E8
:100DB000202101A89847EDB22046B3680821984742
:100DC000012D0CBF0198204602B070BDC00F00205D
:100DD00038B590F83030012B044602D990F829300C
:100DE00003B969B10120FFF758FF94F83030012BA7
:100DF00003D9E16A0C20FFF7AEFF0020FFF7C8FF20
:100E00000420FFF7C5FFC0F3400110F0100F00F001
:100E1000B20500F020024FEA011100F080000BD073
:100E200041F002014AB960B90020FFF794FF0023A6
:100E300084F82930284638BD12B141F00401F2E7A8
:100E400010B141F00801EFE70029F0D01021EBE7E5
:100E50002DE9F7439846D3050F460546114602D5BE
:100E600090F8293033BB3846FFF760FF00238146F6
:100E7000FA2101A8009312F023FA224EB368082148
:100E800048469847336803209847C4B2042C15D1CC
:100E90001E2200212846FFF7F7FE01A812F01BFAD8
:100EA0000028EBD0022C25D16B69012128469847F8
:100EB00085F82940002003B0BDE8F083022CECD077
:100EC000072CF5D0012C03D00F49012003F026FB9D
:100ED0009FB1736820216846984728B101200B49CB
:100EE00085F8290003F01AFB0020B3680821984711
:100EF0000098E0E7042CDBD0E2E7F36820214046CD
:100F00009847F1E7C00F0020C2BC0108D2BC01081D
:100F10002DE9F041002621F070470446B04627F045
:100F200001070120FFF7B9FE47EA0671636884F8FC
:100F3000298041F001010C2098472046FFF7EAFA8A
:100F4000E8B13C21012018F0BDFE234605460246CB
:100F500004F1380E186859689446ACE80300083369
:100F600073456246F6D11868CCF800006B6985F8C5
:100F70002A602846042198472846FFF705FC0136D9
:100F8000102ECED12046BDE8F04118F05DB8F8B57E
:100F9000064611F0E9F93C21012018F093FE0446C1
:100FA000002844D03A4B43603A4BC3603A4B8360CD
:100FB0003A4B03613A4B43613A4F12F06FFE012006
:100FC00011F0AAFF0020FFF768FEBB683648202119
:100FD0009847BB68354820219847BB683448202192
:100FE0009847BB683348202198474FF4D070BB68BE
:100FF0000C2198470120FFF750FEB6BB2046FFF7B3
:1010000089FA0546A8B9FFF748FEBB6810214EF2E1
:101010009E7098470120FFF740FE84F82950204633
:10102000FFF778FA054620B9204618F00DF80020A1
:10103000F8BDC5F3073313F00E0FC5F3033584F87D
:1010400030500ED0022208212046FFF71DFE042159
:10105000A368204698470022064608212046FFF74D
:1010600013FE94F83030012B09D931462046FFF7A2
:101070004FFF114B1868003818BF0120D8E72046F1
:101080006369042198472046FFF77EFBF1E700BF24
:10109000570D0008D10D0008090D0008510E000879
:1010A000C50C0008C00F002092F30962952D8586BB
:1010B000E9AFDDE3A20EBC19D80E0020012910B55E
:1010C0001346074C05DD00225868114615F0FEF85E
:1010D00020602168034804F090FA012010BD00BF91
:1010E00000000020E3BC010808B5064B196821B1D7
:1010F000054804F082FA012008BD044804F04EFAC5
:10110000F9E700BFD00E002049BF010812BD010859
:1011100001292DE9F0410F4616463ADD5468204674
:1011200019F00EF91D490246204615F00BF9044648
:1011300078BB022F2FD002254FF00108002256F86D
:101140002500114615F0C2F81F2898BF08FA00F0D4
:1011500005F1010598BF0443AF42EFD81048114E86
:1011600004F04BFA1F2524FA05F101F00101304685
:1011700004F043FA013DF6D20B4804F03EFA204653
:1011800011F02CFF09490A4804F037FA0120BDE8A4
:10119000F0810024E2E74FF0FF34DFE71EBD0108D5
:1011A00025BD010896D6010811C00108850F002051
:1011B00034BD0108012910B5134612DD002258681C
:1011C000114615F083F8044611F0CEF8012011F015
:1011D00003FE204612F0A2F8002011F0FDFD0120D0
:1011E00010BD0024F0E708B5054B00215B68012025
:1011F0009847002211461046FFF7DCFF012008BD8A
:10120000A00F002010B5094804F0C8F9084804F000
:10121000C5F90848002111F071F8044620B90648C4
:1012200004F0BCF9204610BD0120FCE75FBD0108B9
:1012300073BD01083D12000883BD01082DE9F0438C
:10124000064685B008460D4611F0C4F90028284628
:101250000CBF4FF020094FF02A0911F0B6FA0446EE
:10126000284611F0B0FA174918F04EFBD8B92846B5
:1012700011F0A9FA0746284611F0A9FA8046284637
:1012800011F0A8FA104BCDF80080002C08BF1C46C6
:10129000CDE901043B460D484A46314604F0ADF91C
:1012A00005B0BDE8F083284611F08DFA064A002CFF
:1012B00008BF14460346009405484A46314604F0E8
:1012C0009CF9EDE79DBD0108A7C00108AABD010872
:1012D000DEBD0108022913B5134618D10022019280
:1012E00058680A2201A914F0F1FF019C2CB910489A
:1012F00004F083F9204602B010BD23784D2B10D0A6
:101300006B2B02D14FF47A73584312F04FF812F05E
:1013100067F8431C014606D1064804F06EF9012027
:10132000E9E7054BF0E7054804F067F9F7E700BF88
:10133000EEBD010832BE010840420F0042BE010866
:1013400070B59EB011F04BFD002835D1314B1B78A4
:1013500013B1012011F040FD00234FF0FF32039341
:1013600005922D4A019311681D9106A803A91160E9
:1013700018F0B8FA30B9284C284D294E226803AB32
:101380009A4220D0039B012B31D0022B02D1254859
:1013900004F033F9019B83F0010414F0FF042BD017
:1013A000002011F0B9FD002011F016FD1E4804F0D8
:1013B000F5F800201EB070BD11F011FD01461B486C
:1013C00004F01BF9C2E704F0B1FD01900028D9D167
:1013D000284604F0E3F80198FFF7D9FD01900028B2
:1013E000D0D1304604F0DAF81D9B2360C6E704999B
:1013F0000F4804F002F9CDE7224621462046FFF7C8
:1014000001FF204611F088FD2046214608F036F9FC
:101410000120CFE7D8070020DC0700206EBE0108BE
:1014200097BE0108B3BE0108F0BE01085ABE01080C
:10143000E1BE010830B59FB0134601294FF000020C
:10144000029204DD5868114614F040FF029011F03A
:10145000C6FC002833D12A4B1B7813B1012011F0B0
:10146000BBFC00234FF0FF3203930592254A019302
:1014700011681D9106A803A9116018F033FA20B96C
:10148000204C03AD2368AB4220D0039B012B24D01A
:10149000022B02D11C4804F0B0F8019B83F0010438
:1014A00014F0FF041ED0002011F036FD002011F0D2
:1014B00093FC164804F072F800201FB030BD11F004
:1014C0008EFC0146124804F098F8C4E70298FFF732
:1014D0005EFD1D9B23600190D4E704990D4804F044
:1014E0008CF8DAE7224621462046FFF78BFE20469D
:1014F00011F012FD2046214608F0C0F80120DCE77B
:10150000D8070020DC070020B3BE010803BF010894
:101510005ABE0108E1BE010830B59FB011F05FFC72
:10152000002833D1294B1B7813B1012011F054FC52
:1015300000234FF0FF3203930592254A019311686F
:101540001D9106A803A9116018F0CCF920B9204C10
:1015500003AD2368AB4220D0039B012B23D0022B89
:1015600002D11C4804F049F8019B83F0010414F0F7
:10157000FF041DD0002011F0CFFC002011F02CFC46
:10158000154804F00BF800201FB030BD11F027FC07
:101590000146124804F031F8C4E704F0C7FC1D9B73
:1015A00023600190D5E704990D4804F026F8DBE7A5
:1015B000224621462046FFF725FE204611F0ACFCCE
:1015C0002046214608F05AF80120DDE7D807002020
:1015D000DC070020B3BE010815BF01085ABE010890
:1015E000E1BE010870B5044638B103681B6823B931
:1015F000204611F07DF9012070BD0848084D094EC4
:1016000003F0CCFF296811B9002CF1D1F3E7AA68E7
:10161000304603F0F2FF0C35F4E700BF2FBF01089E
:101620007CC4010842BF010808B5084803F0B6FFB2
:1016300011F0D0FB0146064803F0DFFF054803F038
:10164000ADFF054803F0AAFF012008BD4DBF01080A
:1016500079BF010890BF0108C3BF01082DE9F3411C
:101660001446054630B91A4803F098FF012002B02D
:10167000BDE8F081052926D160681022002114F010
:1016800025FE102206460021A06814F01FFE10223D
:1016900007460021E06814F019FE10228046002160
:1016A000206914F013FE4346044600903A46314642
:1016B000084803F0A2FF009443463A4631462846C4
:1016C00011F018F8D2E7044803F097FFCEE700BF07
:1016D00013C0010821C0010867C001082DE9F047C7
:1016E00082B0054600AF08460E4618F029FE324685
:1016F0003044012382422AD19B00073323F00703A1
:10170000ADEB030D30462249214E00243A1D7C608A
:1017100014F08EFEE84610BB1E4E4CB3DFF87890F6
:10172000D8F800A0504618F00BFE49460246504635
:1017300014F008FEE0B156F80C9FB9F1000FEFD19C
:1017400015B342462146284611F092F818E012F8E7
:10175000011B202901D00929CCD10133CAE748F85F
:1017600024003A1D3146002014F062FE0134D2E715
:101770007368424621462846984780F00100C0B26F
:101780000837BD46BDE8F0874FF0FF30F8E700BFEF
:10179000A5C001087CC401089DC0010870B50546BC
:1017A0000E4618F0CDFD044680B102460A4928468F
:1017B00014F0C8FD18B901203070012070BD074930
:1017C0002246284614F0BEFD0028F5D0044803F058
:1017D000E5FE0020F2E700BFA8C00108AFC0010885
:1017E000B7C00108012908B50CD0022906D10B4960
:1017F0005068FFF7D3FF28B9012008BD084803F05F
:10180000CDFEF9E7054B074A1978074B0748002931
:101810000CBF1146194603F0F0FEEDE7D807002093
:10182000F9C00108F0C00108E8C0010816C10108AC
:10183000D0F8F0301868704710B504460068FEF71D
:1018400047FD2046BDE8104017F0FEBB08B5D0F8B4
:10185000F0301B6858680021C3689847003818BFEB
:10186000012008BD13B5D0F8F030186800220192AD
:101870005A6843681C6A04230A440DEB0301A0471D
:10188000019802B010BD13B5D0F8F0000192446881
:10189000006804230DEB03022144FEF75FFF02B052
:1018A00010BD10B54FF450610446FFF7DBFF20F088
:1018B0000F039BB24CF230229342A0673ED019D85E
:1018C0004CF28002934231D00BD84CF2500293423A
:1018D00027D04CF27002934226D0B3F5995F29D0FD
:1018E00010BD4CF29002934222D0B3F5424FF7D193
:1018F000154B17E0B3F5464F24D009D84CF24022DF
:1019000093421DD04CF270229342E9D10F4B09E073
:10191000B3F5524F10D04DF210229342E0D10C4B50
:1019200000E00C4BE367DBE70B4BFBE70B4BF9E706
:101930000B4BF7E70B4BF5E70B4BF3E70B4BF1E7E3
:101940000B4BEFE70B4BEDE766C501085FC50108E0
:1019500051C501083CC501083FC5010842C5010841
:1019600045C5010848C5010855C5010859C5010804
:101970005CC5010862C5010870B50B79D0F8F0505C
:101980000C69012B06461CD006D9023B022B4FF0F6
:10199000010327D9184606E0CB68022B04D0042B9C
:1019A0000AD04FF0FF3070BD8968A2B210F03BFF43
:1019B000304610F009FEF6E78968224610F01AFF5B
:1019C000F6E72A7BA340A10022EA030301F5A071F8
:1019D0002B7389B20022FFF756FF0CB9C5F8D84027
:1019E0000020E0E76A7BA340A10022EA030301F59F
:1019F000E0716B7389B20022FFF745FFF0E738B55D
:101A00000D4680210446FFF73EFF88212046FFF760
:101A100029FF4300F9D52A4684212046FFF733FFEA
:101A200088212046FFF71EFF00F08240B0F1807F42
:101A3000F6D138BD10B50A4684210446FFF723FFCE
:101A400088212046FFF70EFFC301F9D510BD2DE90F
:101A5000F047D0F8F050DFF8A8A0DFF89480DFF866
:101A6000A490044605F15007002651462046FA6826
:101A7000FFF7C5FF41462046BA68FFF7C0FF46EAB8
:101A8000090120460136FFF7D5FF102E07F10807A0
:101A9000EBD16A6D16492046FFF7B1FF1549204684
:101AA000FFF7C8FF2A6D12492046FFF7A8FF124929
:101AB0002046FFF7BFFF2A6DEB6C0D49C2F34012C1
:101AC0001A432046FFF79BFF0C492046FFF7B2FF61
:101AD0000C35002646EA080155F8042F204606F585
:101AE0008056FFF78CFFB6F5704FF3D1BDE8F08755
:101AF000150E10EE100AE1EE00F02FE100F0A0E16B
:101B0000151E10EE100B41EC10B50A468421044658
:101B1000FFF7B9FE88212046FFF7A4FE00F004502D
:101B2000B0F1045FF6D120468C21BDE81040FFF7EC
:101B300099BEF8B5D0F8F07004464FF480750026D1
:101B4000294600222046FFF79EFE05F140010022B3
:101B500089B22046FFF797FEFB7B01360435B3427E
:101B6000ADB2EDD22046FFF772FF20460949FFF7DC
:101B700061FF88212046FFF775FE882120F4C042CE
:101B80002046FFF780FE20460622BDE8F84090215F
:101B9000FFF779BE150F07EE2DE9F843D0F8F09066
:101BA000044616461D4663B10B430A46990724D0E6
:101BB0002749284FDFF8A480FFF721FF3544B542BD
:101BC00001D1BDE8F88316F8012B39462046FFF70E
:101BD00016FF424684212046FFF755FE8821204605
:101BE000FFF740FE4206EAD5042290212046FFF787
:101BF0004AFE012389F8E030E3E71649FFF7FFFECC
:101C000088212046FFF72EFE20F4401747F40012EB
:101C100088212046FFF737FE0F4A84212046FFF730
:101C200032FEB04658F8042B80212046FFF72BFEE9
:101C3000A6EB0803EB42F5D13A4688212046FFF790
:101C400022FE88212046FFF70DFE4306B9D5CBE7DB
:101C500015DE10EE150E10EE015EA0EC0100CDE4D5
:101C60002DE9F8430C460979D0F8F05001290646D1
:101C70002DD00BD98B1E022B00F2C680A87B00232F
:101C8000984200F2848040F0868004E0E368022BF2
:101C900004D0042B11D04FF0FF300CE0A16810F0FD
:101CA000B3FDA16820614FF43E42304610F0BBFD09
:101CB000304610F089FCBDE8F883A16810F08DFD76
:101CC000524A2061A168304610F094FDF0E7E368C5
:101CD000042B01D0022BDED1EA7B0027BA4201D8C7
:101CE000D9D003E02B7BFB40D8074BD427612B7B5B
:101CF00047494FF0010909FA07F213432B73D4F84F
:101D0000088030464246FFF77AFE42493046FFF7E8
:101D100091FE41493046FFF78DFE40493046FFF7BE
:101D2000F3FE237BC10720F47F6048BF85F8E09075
:101D300020F00F00C8F30B08042B40EA080023D062
:101D400010F0020F0CBF4FF060094FF4C0794FEA5A
:101D500087081FFA88F820F0030408F5807189B21B
:101D600022463046FFF78FFD49F0070908F5A071BC
:101D700089B24A463046FFF786FD0FB9C5E9369469
:101D8000002098E70137A9E74FF4F079DFE76A7B95
:101D9000DA40D2072BD423616A7B012098400243AA
:101DA0006A73E268022A24D0042A24D0012A7FF42C
:101DB00072AF2022A068032900F0030002FA00F2AB
:101DC0001CD004291DD042F017029B009DB205F5DE
:101DD000C071304689B2FFF756FDA26805F5E07183
:101DE00089B222F003023046FFF74DFDC8E7013308
:101DF00046E76022DEE74FF4F072DBE742F00F02C5
:101E0000E3E742F01F02E0E7012054E7700020E121
:101E1000150E10EE180F07EE140F17EE150E00EE4C
:101E2000D0F8F030826903F1100018F0E1B90346F0
:101E30000846D3F8F0109A69103118F0D9B92DE995
:101E4000F74F2F4B2F4A1B6801932F4BDFF8CC9095
:101E50001B6800932D4B1B680C46074614F050FD81
:101E6000264605464FF0000804B1661B4346781924
:101E70004A46314614F044FD08F10108B8F10D0F4F
:101E80000544F1D1DFF89880DFF898B0204A08F1D6
:101E90000409CA4618F8013B04B1661B5BF82330FD
:101EA0000093781959F8043B314614F029FDD045C8
:101EB000174A0544EED104B1661B7819154ADFF8BC
:101EC0006890314614F01CFD4FF00008054404B141
:101ED000661B434678194A46314614F011FD08F155
:101EE0000108B8F1100F0544F1D104B1661B0A4A8C
:101EF0003146781914F004FD284403B0BDE8F08F92
:101F00005800002069C501085C0000206000002026
:101F1000C1C50108E1C501085CC60108A2C50108E8
:101F2000B8C601084C00002030C60108002138B5B1
:101F30000846FFF784FF451C284617F07DF8044645
:101F400010B12946FFF77BFF204638BD70B59EB023
:101F500000230393022305930F4B01901A681D92EF
:101F600006A803AA1A6017F0BDFC28B90A4C03ADF5
:101F700001262368AB4207D0039B1BB10749019898
:101F800010F0A0FC1EB070BD019832469021FFF702
:101F90007AFC1D9B2360ECE7DC07002070C601087B
:101FA00008B5D0F8F03093F8E020002183F8E01075
:101FB00022B9FFF74BFC00F0010008BD0120FAE751
:101FC0002DE9F04F83B000AF1E46D0F8F0307B60B3
:101FD00002F0030AF31C03EB0A08396028F003013E
:101FE000073121F00701ADEB010D044622F0030299
:101FF0002449FFF704FD88212046FFF733FC20F435
:10200000401545F4001288212046FFF73CFC1E4A8B
:1020100084212046FFF737FC8C212046E946FFF754
:1020200021FC28F00303CB4603EB0908C3451DD16F
:10203000324609EB0A01386818F0DAF82A46882196
:102040002046FFF720FC88212046FFF70BFC4306C3
:1020500013D5042290212046FFF715FC7A6801234E
:1020600082F8E0300C37BD46BDE8F08F8C21204669
:10207000FFF7F8FB4BF8040BD8E78C212046FFF75D
:10208000F1FBEFE7150E10EE015EB0EC10B54FF46A
:1020900041710446FFF7E6FB4FF4817300F009023B
:1020A000D340DA070ED583070CD520464FF4407194
:1020B0000022FFF7E8FB20464FF44171BDE81040D5
:1020C000FFF7D0BB10BDF8B50446D0F8F07010F0A3
:1020D0007BFA2046FFF7DAFF204610F0E9FA0A26DD
:1020E00010F07BFE054660B90146204610F0E4FA88
:1020F00038B9013E01D12846F8BDC82011F00EF9CB
:10210000EEE700253D734FF48076314600222046ED
:10211000FFF7B9FB06F14001002289B22046FFF724
:10212000B2FBFB7B01350436AB42B6B2EDD20020E8
:10213000C7F8D80010F050FE0125DCE770B59EB05E
:10214000234901904DF60D7210F054FB214901987E
:10215000012210F04FFB012010F03EFE002010F095
:102160003BFE4FF47A7102A811F0AAF81A4A002334
:1021700003934FF0FF33059313681D9306A803AB39
:10218000136017F0AFFB044620B9134D03AE2B6864
:10219000B34215D002A811F09EF810B9039B012B91
:1021A000E4D0039B012B03D10398049902F0B6F904
:1021B000642011F0B3F80198FFF785FF1EB070BDE1
:1021C00001982146FFF74EFB1D9B2B60DFE700BF08
:1021D000080000F8000200F8DC0700202DE9F04FAD
:1021E0009FB00023029303934FF0FF330593594BA5
:1021F0001A681D92CDE9000103AA06A81A6017F01B
:1022000071FB28B9534C03AD88262368AB422AD012
:10221000039C012C2FD0022C00F09980029C14F01A
:1022200001042AD00098FFF731FF029B029B00981F
:1022300043F4C0430293029B23F440130293029A97
:102240008821FFF720FB00988821FFF70BFB029005
:10225000029B029B03F03C0203F01C03082B10D0EE
:10226000D2B9022419E000983146FFF7FBFA029038
:102270001D9B2360C9E710F077F820461FB0BDE82A
:10228000F08F009BDB6C0424052133B11A79023AEC
:10229000022A5AD8052C54D10424009B2E4ED3F880
:1022A000F050002705F10C0847EA06010098FFF7F7
:1022B0002BFC07F58057B7F5704F48F8040FF3D1A2
:1022C00026490098DFF8A0B0DFF8A0A0FFF7B2FB26
:1022D00031460098FFF718FC2149E8640098FFF7A1
:1022E000A9FB31460098FFF70FFC1E4928650098AE
:1022F000FFF7A0FB00983146FFF706FC05F15008F8
:102300006865002747EA0B010098FFF793FB5146E9
:102310000098FFF7F9FB314681460098FFF7F4FB80
:10232000013748F8080F102FC8F80490EAD1D5E912
:10233000133212F0200F0CBF082204229B1AEB6408
:102340009BE701989A6802600C461B689DE7002491
:1023500093E700BFDC070020150E00EE0F00A0E1A0
:1023600000000FE1100AF1EE100B51EC151E00EE0B
:1023700010B50C460F2CD0F8F00011460AD80434E2
:1023800000EB840004249C4217D8224617F030FF4B
:10239000204610BD102C01D15030F3E7112C01D193
:1023A0005430EFE7212C9BBF073C00EBC40000201A
:1023B000082488BF4FF0FF34E5E74FF0FF34E7E72C
:1023C00073B5D0F8F06004460D46002946D0D6E932
:1023D000132399063FD512F0020F0CBF60264FF46D
:1023E000C07622F003024FF480712046FFF74BFACB
:1023F00046F4800242F007024FF4A0712046FFF736
:1024000042FA2046FFF723FB1A492046FFF712FB4A
:1024100088212046FFF726FA4DB340F4006020F4EF
:10242000005288212046FFF72EFAC82101A810F09B
:1024300047FF062290212046FFF725FA88212046F3
:10244000FFF710FA830704D401A810F044FF002816
:10245000EFD002B070BD4FF4F076C2E7D6F8DC20C2
:102460004FF48071FFF70FFAD6F8D820C4E720F4B4
:102470009040D4E7150F07EE10B504460F29D4F8A5
:10248000F04010460AD8043104EB810104249C4238
:1024900019D8224617F0ACFE204610BD102902D1F3
:1024A00004F15001F2E7112902D104F15401EDE7E2
:1024B00021299BBF073904EBC1010021082488BFF3
:1024C0004FF0FF34E3E74FF0FF34E5E7F7B506469A
:1024D0000F460FF099FF044610B9002003B0F0BD7D
:1024E0003046FDF7ECFEE821012017F0EBFB054636
:1024F0000028F2D0374BC4F8F430374BC4F8F00062
:10250000C0E900672361354B6361354BE360354BB0
:102510006367354BA363354BE363354B2364204638
:10252000FFF7B4FD204610F0C3F8FA2101A810F01F
:10253000C7FE002601A810F0CEFE00283ED0062ED1
:10254000CBD0012EC9D02046FFF7ABF900212046A1
:10255000FFF788F9C0F30363000FEB730130254BDD
:10256000A8736360244BA360244BE361244B236274
:10257000244B6362244BA362244BE362244B23630A
:10258000C823A36140F604512046FFF76BF9430FBF
:10259000042B1BD110F00F021EBF012393402B818F
:1025A00010F4702FC0F3034202D0012393406B81DB
:1025B000184B6364184BA36401208FE7002EBED133
:1025C0003146204610F078F80646B3E720460FF073
:1025D000FBFFEDE739180008C11F0008991B000830
:1025E000A11F00089EC601084D1F0008DD2100083C
:1025F000C1230008C7200008331B00082D1F000856
:102600002F1E0008211E00087924000871230008ED
:102610003D210008611C00087919000802292DE9F4
:10262000F74FD0F8F080044617462FDD924602EBB4
:1026300081064FF00009DFF8B0B000255BF8040B0D
:1026400048B1DAF8001017F05FF9012318B903FA5E
:1026500005F249EA020901350B2DEFD10AF1040A0E
:10266000B245E8D178680DF10701FFF797F880B11E
:102670009DF80730D8F8182063B342EA09021749D9
:10268000C8F81820204610F0B5F802E0144910F000
:1026900019F91449144EDFF85890204610F012F939
:1026A0000025012756F8042B4AB1D8F8180007FA7C
:1026B00005F3034203D04946204610F003F90135E3
:1026C0000B2DEFD12046094910F0FCF8012003B092
:1026D000BDE8F08F22EA0902D1E700BFFCED00E07F
:1026E000CCC6010820C70108E4C8010811C00108D0
:1026F00033C7010810B50A79D0F8F0400B69012AF8
:1027000011D0023A022A4FF0010218D8617B9A4098
:1027100021EA02020B49627301EB0311002210F05F
:1027200069F8002010BD217B9A4021EA020203F1E2
:10273000605101F60201227389000022EFE7104682
:10274000F0E700BF281000E010B5054904460F224D
:1027500010F050F820460349BDE8104010F03DB895
:10276000F4ED00E0F8ED00E070B59EB000230393B7
:1027700002230593104B01901A681D9206A803AA24
:102780001A6017F0AFF830B90B4C0C4D0C4E2068A6
:1027900003AB984207D0039B1BB10A49019810F084
:1027A00091F81EB070BD01982A46314610F022F80B
:1027B0001D9B2360EBE700BFDC07002003005FA048
:1027C000F0ED00E070C60108F8B51C4BD0F8F070D1
:1027D0001B4E0D1E18BF1E463B7CAB42044605D067
:1027E000184946F0020210F005F83D747B7CB3B145
:1027F0002046FFF7A9FF01460546204610F004F8E1
:1028000000F47F40B0F53E4F09D10F49AA1C204685
:102810000FF0F0FF0D4A0E4920460FF0EBFF3B8909
:1028200023B10C49002220460FF0E4FF3246204637
:102830000449BDE8F8400FF0DDBF00BF0D005FA008
:1028400001005FA0F0ED00E0F8ED00E00F000100F6
:10285000F4ED00E050EF00E02DE9F041ADF5327D00
:10286000002207922D924FF0FF322F92A64AD0F805
:10287000F030039005910493116847912DAB30A877
:10288000136017F02FF828B99F4DA04E2DAC2B6880
:10289000A34209D02D9C012C0ED0022C02D0079B04
:1028A0009A0310D400200AE0039831460FF095FFF8
:1028B0000790A36E2B60EAE70FF056FD20460DF55A
:1028C000327DBDE8F081924D039829460FF085FFD7
:1028D00029460446024603980FF08CFF230758D57B
:1028E000DFF8488203988B4F41460FF076FF394658
:1028F000054603980FF071FF2A46064641460398A5
:102900000FF078FF05F080450398324639460FF006
:1029100071FF35433DD0039848A90FF093FE569DB3
:10292000039815F0040614BF5A9A599A202315A942
:102930000FF053FE03980FF047FE002829D11A9B91
:102940001C9A569315F010051B9B57930CBF6823D8
:102950002023970548BF0433BEB15B9A42F08062E2
:102960005B925A9A13445A9355931DB95B9B43F05B
:1029700000735B93684A694903980FF03BFF039823
:1029800048A90FF078FE062099E7599A1344599305
:10299000EAE704F00203002B049A14BF012300238A
:1029A000537400F024820398FFF7CEFE014603988B
:1029B0000FF02AFF4BF6AB63984240F010821025CF
:1029C0002A46002111A816F0D7FE039B03981B6826
:1029D000002283F83A207DA90FF034FEDDE97D4224
:1029E000182C09D14E4903980FF06CFF0398012170
:1029F0000FF067FE0020A7E02B46039811A90FF007
:102A0000ECFD631E302BF5D801A252F823F000BF75
:102A1000D52A00086D2B00089D2B0008AB2B000861
:102A20008F2B0008792B0008BB2C0008512D0008C3
:102A3000E12B0008ED2B0008F5290008332C0008D5
:102A4000972D0008172C0008012C0008652C0008A1
:102A5000652C0008252C0008EF2C0008F52900083B
:102A6000052D0008872D0008F5290008F529000824
:102A7000F5290008F5290008F5290008F5290008BE
:102A8000F5290008F5290008F5290008F72C0008A9
:102A9000F5290008F5290008F5290008F52900089E
:102AA000F5290008F5290008F5290008F52900088E
:102AB000F5290008F5290008F5290008F52900087E
:102AC000F5290008F5290008F52900081B2D000844
:102AD0001B2D0008129B03985A08124B03EB82032C
:102AE00008A9DC6A119A04230FF077FD0E4908A8A3
:102AF00016F00AFFE0B924B114F4806F0CBF022075
:102B00000120013020E000BFDC070020F0ED00E0F4
:102B100030ED00E028ED00E00200FA050CED00E0E9
:102B200037C70108E4C8010844C701082CED00E0DC
:102B3000139A119903984FF4D27300930132A3B200
:102B40000FF0FAFE461CDCD17D907DA903980FF0B2
:102B500092FD039B1B6893F83A30002B40F075817F
:102B6000049B0398197C0FF0ACFD9BE61199039828
:102B700001390FF0F0FEE7E711A90EC903980139FA
:102B80000FF0F2FE0028DFDB139B181ADCE711A917
:102B90000EC9039801390FF0F3FEF3E77E9A03980C
:102BA000012302210FF0ECFECEE77E9D2C46039818
:102BB00021460FF043FE18B103980FF005FD68B1F0
:102BC000641B3FF417AF039823462A4602210FF0F7
:102BD000D7FE201A18BF4FF0FF30B5E70134E6E703
:102BE0001199039801390FF036FFADE71199129A48
:102BF0000398002301390FF0EEFE129B181AE9E743
:102C0000149B129A11990398013300930132139B7C
:102C10000FF0EDFE98E7129A1199039801320FF028
:102C2000F5FE91E7129A1199039801320FF019FFFE
:102C30008AE7039B039A11990398D3E90454844BC0
:102C40001361844B536101391DAA0FF0F7FE039BFA
:102C5000C3E90454249B18435FD1259800BA40EA85
:102C6000E07071E7039B039A0398D3E90465784BFE
:102C70001361784B53610EA900220FF0E5FE039B10
:102C8000C3E90465002848D10E98109B112C00BAA6
:102C90003FF45AAF704A1168884238BF10606E4ADC
:102CA00012681BBA801A42F21072B3FBF2F364226C
:102CB00002FB003323F0004046E73F238DF81B3032
:102CC000039B039A0398D3E90454614B1361614B4E
:102CD0005361002101230DF11B020FF045FE039B00
:102CE0000128C3E9045418D19DF81B002CE7039B6D
:102CF0001B68188F28E7DDE91132584903980FF057
:102D0000E1FD73E6039B119D03F18004204617F05B
:102D100017FB129A431C9A4202D24FF0FF3013E77E
:102D20000398224629460FF061FC0028F5D1204681
:102D3000099517F005FB7E9901300A90082309AA2E
:102D400003980FF053FC003818BF01204042FBE607
:102D5000119B5A1E012A0AD91E2B0AD8032B7FF673
:102D600049AE3F4A22FA03F3DD077FF543AE012067
:102D7000EAE65B2BFBD042F20F729342F7D0582B5E
:102D80007FF438AEF3E7039A7E9903981023D43288
:102D90000FF02CFC2EE6334C139E206861680BAAC2
:102DA00003C2DDE911532089A17A10809170002DB2
:102DB000B3D0002EB1DDFF2BAFD803F00F021B11F3
:102DC000413341320BA88DF830308DF8312017F0A7
:102DD000B7FA431C9E42A0D30BAA2946B0E764076A
:102DE00001D404206BE5059B53B9052067E5600716
:102DF000F9D4E307F5D5049B187C0230C0B25EE538
:102E0000039B194ED3F8F0500024AB7B9C420CD2AC
:102E10006B7BE340D90701D40134F6E7039806EB56
:102E200004110FF0DAFCC201F6D5AB7B9C4201D154
:102E3000002007E004F1606101F581710398090148
:102E40000FF0CBFC059B1860CFE7022037E500BFF1
:102E5000772E00086D2E00080400002048C70108E6
:102E60003062FB7959C70108281000E00846114676
:102E70001A4617F0BDB9084611461A4617F0B8B9F8
:102E800037B504461E490FF0A8FC206E10F004056B
:102E900008D101200FF0A0FF28460FF09DFF0A2067
:102EA00010F03CFA164920460FF097FC820104D43A
:102EB000144A154920460FF09DFC636B0BB1204668
:102EC00098474FF47A7101A810F0FAF90C4D294691
:102ED00020460FF082FC830104D501A810F0FBF915
:102EE0000028F4D00A2010F019FA08491F222046C1
:102EF0000FF080FC20460FF067FB03B030BD00BF31
:102F0000F0ED00E00400FA050CED00E030ED00E02B
:102F1000F8B5D0F8F0601A4F04460025F37BAB42B9
:102F20001DD8184F0025B37BAB4220D82046FEF7B2
:102F30007FFC1549826920460FF05CFC2046134A4D
:102F400013490FF057FC2046124A11490FF052FC6A
:102F50002046114A0E49BDE8F8400FF04BBC07EB84
:102F60008501002220460FF045FC0135D6E707EB2E
:102F70000511002220460FF03DFC0135D3E700BFCC
:102F8000082000E0281000E0FCED00E003005FA056
:102F9000F0ED00E001005FA000005FA02DE9F04F20
:102FA000284B294A1B68DFF8C48085B00D46019381
:102FB000264B1B680093264B1B68074613F0A0FCAA
:102FC000AA46044600260DB1A5EB040A334638197B
:102FD0004246514613F094FC01360D2E0444F2D1C2
:102FE0001C4E1D4A06F10A0806F1140B06F13C09B5
:102FF0000DB1A5EB040A16F8010B184918F801CB1E
:1030000051F82000164919F8013B029051F82C00A4
:10301000CDE9003051465BF8043B381913F070FCE1
:10302000104B0D4A9E420444E2D10DB1A5EB040AB7
:103030000D4A5146381913F063FC204405B0BDE831
:10304000F08F00BF5800002064C701085C0000201A
:103050006000002028C90108A1C701084C00002019
:103060004400002032C901085CC60108A2C501085D
:103070002DE9F84307460D46FFF790FF044615BBC0
:103080002E463819124ADFF85090314613F038FCBA
:103090004FF00008044405B12E1B434638194A4638
:1030A000314613F02DFC08F10108B8F1100F04446B
:1030B000F1D105B12E1B074A3146381913F020FC17
:1030C0002044BDE8F883A0F109042E1BD9E700BF16
:1030D000EBC501085CC6010830C60108016E11F09D
:1030E000020138B50CD000210846FFF7C1FF451C8E
:1030F000284615F0A1FF044680B90024204638BDBB
:103100000846FFF74BFF451C284615F095FF04467F
:103110000028F2D02946FFF741FFEFE72946FFF7E5
:10312000A7FFEBE72DE9F74F8946D0F8F0104D895E
:10313000074665B116481749FC6EAD00002B0CBF61
:1031400082468A4609EB0206C5F1000B14B903B0AA
:10315000BDE8F08FD4E9002302EB0308B04528BF97
:10316000B04691452CBF0BEA09030BEA02039845D0
:10317000019301D8A468E9E73846FEF759FB042318
:103180000DEB03025146FDF7E9FA019B2B44EEE7F4
:1031900068EF00E070EF00E02DE9F04114461D46B5
:1031A0002A4607460E4600232146FFF7BBFF384656
:1031B000FEF73EFB43681F6A22462B463146BC465B
:1031C000BDE8F04160472DE9F0411C460746164630
:1031D000012322460D46FFF7A5FF3846FEF728FBE0
:1031E000234632462946BDE8F041FDF7B7BAF7B5A8
:1031F0000446FEF71DFB4368394F012283F829205E
:10320000D4F8F05020460FF0DFF920460FF050FAC6
:10321000AA69344920460FF0EDFA08261F223249E8
:1032200020460FF0E7FA3149EE7320460FF0D5FA49
:10323000EA7BAE73C0F303139A424FEA107088BF63
:10324000EB7368612A4920460FF0C7FAAA7B030F87
:10325000B2EB107F4FF0000688BFAB732E73EB7B91
:10326000B34217D80026234F6E73AB7BB34219D8F5
:1032700003221E4920460FF0BDFA1F4920460FF0D9
:10328000ACFA1D4920460FF0A8FA820112D40120A1
:1032900003B0F0BD07EB8601002220460FF0AAFA2A
:1032A0000136DCE707EB0611002220460FF0A2FAF8
:1032B0000136DAE700200FF08FFD4FF47A7101A894
:1032C0000FF0FEFF0C4D294620460FF086FA8301D1
:1032D000DDD501A80FF0FFFF0028F4D00020D7E7CC
:1032E000082000E0FCED00E030ED00E0002000E010
:1032F000001000E0281000E0F0ED00E0132905D8F0
:10330000064B03EB8103D3F88C007047036E9B07D9
:1033100001D53429F4D94FF0FF307047E4C80108D3
:10332000032B38B504460D460FD9126808490FF033
:1033300061FA29462046FFF7E1FF064940F4803252
:1033400020460FF057FA042038BD4FF0FF30FBE75E
:10335000F8ED00E0F4ED00E0032B38B50446154627
:103360000DD9FFF7CBFF0749024620460FF042FA7E
:10337000054920460FF031FA2860042038BD4FF08F
:10338000FF30FBE7F4ED00E0F8ED00E010B4046975
:103390001346A4460A465DF8044B00216047012904
:1033A00038B504460CD190F8E8100D4A0D4B0E4884
:1033B00000290CBF1146194602F01FF9012038BD43
:1033C0005568284616F0BCFF08490246284612F008
:1033D000B9FFB0FA80F35B0984F8E830EEE700BF8C
:1033E000F0C00108E8C00108C3C70108A8C001086F
:1033F0002DE9F8438A68D0F8F0300E4609790129A2
:10340000054608D0023902297BD8987B0024A042C7
:1034100030D813D032E0596959B922F0604112F026
:10342000020F21F0030114BF4FF000424FF0804221
:103430000A43D87B0024A04203D806D14FF0FF30C6
:1034400014E0197BE140CF0712D4197B0120A04082
:103450000143197304F1605101F6020142F00102C7
:10346000890028460FF0C6F934610020BDE8F883D2
:103470000134E0E7597BE140C90733D4597B01208F
:1034800004F16067A04007F5817701433F0159735C
:10349000284639460FF0AEF9F368012B07F104090D
:1034A00022D903F1FF38404606F0DEF81E281DD869
:1034B000404606F0D9F80246494628460FF09AF9E8
:1034C0002A6E3379D24302F00102032B07F108017F
:1034D0004FEAC2220CD0042B0DD0022B0ED142F0A9
:1034E0000602BEE7013492E70022E5E71F22E3E788
:1034F00042F00502B5E742F00702B2E74FF0FF32B3
:10350000AFE70120B2E72DE9F8430E460746FEF784
:103510008FF942694368DFF88C80DB69044642F02A
:1035200002024FF4807198471C4A60684FF4827120
:10353000FFF72CFF237A60681B06056943F0100330
:1035400008220021A84706F14C09351F58F8042B22
:1035500060684FF48A71FFF719FF60684FF48C714F
:103560008368984745F8040F4D45EFD13B6E9B07A4
:1035700011D50B4FD03657F8042B60684FF48A7181
:10358000FFF704FF60684FF48C718368984745F833
:10359000040FB542EFD1BDE8F88300BFF0ED00E0C5
:1035A000C0C9010870C901082DE9F8430E46074655
:1035B000FEF73EF942694368DFF89080DB69044614
:1035C00042F002024FF4807198471E4A60684FF43F
:1035D0008271FFF7DBFE237A60681B06056943F002
:1035E000100308220021A84706F14C09351F55F8A1
:1035F000042F60684FF48C71FFF7C8FE58F8042B55
:10360000606842F480324FF48A71FFF7BFFE4D4587
:10361000EDD13B6E9B0713D50B4FD03655F8042FD9
:1036200060684FF48C71FFF7B1FE57F8042B6068A7
:1036300042F480324FF48A71FFF7A8FEB542EDD113
:10364000BDE8F883F0ED00E0C0C9010870C90108C9
:10365000F7B506460EF0D8FE044610B9002003B0B8
:10366000F0BD3046FCF72BFE736893F83020012A3A
:1036700040F2BB80DA8E002A00F0B780A4F8F82070
:103680001A8FB4F8F810A4F8FA2040F67F4291425D
:1036900006D15B8E40F67522934208BFA4F8F8303D
:1036A0001C21012016F00EFB05460028D6D0BB4B8E
:1036B000C4F8F4304FF0E023C4F8F0004360B84B96
:1036C0000660E360B74B2361B74B6361B74B636739
:1036D0002046FEF7E6F8B64B6360B64BA360B649EA
:1036E00020460FF07AF840F470063246B249204680
:1036F0000FF080F8B04920460FF06FF8AF4BE36150
:10370000AF4B2362AF4B6362AF4BA362AF4BE3623D
:10371000AF4B2363AF4BA363AF4BE363AF4B236468
:103720005023A361AE4B6364AE4B626FAE49A3649A
:10373000074620460EF050FEB74206D1236E43F0F6
:1037400002032366A3698433A361A84BAB610FF026
:1037500044FB0646D8B1AA69A549A64F20460FF0FA
:1037600049F82046FFF700F800200FF035FB4FF432
:103770007A7101A80FF0A4FD394620460FF02DF80C
:10378000810104D501A80FF0A6FD0028F4D09A49C4
:1037900020460FF022F8430F042B2BD1012200F01A
:1037A0000F0302FA03F32B81C0F303439A406A81AB
:1037B00026B18F49002220460FF01CF8B4F8F830EB
:1037C00040F23B42934200F0548141D8202B33D841
:1037D000142B13D80E2B73D0B4F8FA20B4F8F810C9
:1037E000864801F00AFF012039E7328CA4F8F8205E
:1037F000728C46E720460EF0E7FED9E7153B0B2B0F
:10380000EAD801A252F823F0573A0008D937000845
:10381000473A0008D9370008D9370008D9370008D7
:10382000D9370008D9370008D9370008D937000838
:10383000013A0008FD380008B3F5117F00F0A180BF
:1038400040F223429342C7D120460EF091FB42E062
:1038500040F61312934200F0FA8010D840F27362DF
:10386000934200F0EC8040F25172934239D040F222
:1038700001529342B0D1204603F05CF82BE040F6B1
:103880007522934200F05281B3F5004FA4D1204637
:1038900008F05AFA0028A6D120460EF095FE2046E0
:1038A00006F0B0FE00289ED120460EF08DFE204688
:1038B00003F092FB002896D120460EF085FEDAE751
:1038C000204602F0F1F900288DD120460EF07CFE52
:1038D000204605F099FB002885D120460EF074FEA5
:1038E0007AE720460AF05BF900287FF47CAF204697
:1038F0000EF06AFE20460BF049FDECE720460AF088
:1039000059FB00287FF46FAF20460EF05DFE204685
:103910000BF0DEFC00287FF466AF20460EF054FE6C
:1039200020460BF029FF00287FF45DAF20460EF003
:103930004BFE20460CF064FA00287FF454AF20467A
:103940000EF042FE20460CF075FB00287FF44BAFD2
:1039500020460EF039FE20460DF001F800287FF4D5
:1039600042AF20460EF030FE20460DF0FFFB00284F
:103970007FF439AF20460EF027FE20460DF090FF71
:10398000A9E7204606F086FB00287FF42CAF2046EE
:103990000EF01AFE204606F0A7FC9CE73918000836
:1039A0004D18000899310008C73100089DBD010875
:1039B000EF310008112F000888ED00E0DD3000082D
:1039C00007350008A93500085933000821330008DD
:1039D000812E00086927000859280008C927000817
:1039E000F1330008F526000844CA0108010400016B
:1039F000FCED00E0F0ED00E07CED00E0E7C7010841
:103A0000204608F037F900287FF4EDAE20460EF08E
:103A1000DBFD204608F01CFB00287FF4E4AE2046C6
:103A20000EF0D2FD204608F0E1FE00287FF4DBAE68
:103A300020460EF0C9FD204609F02EFB4BE720463C
:103A400000F08AFC47E7204606F058F843E7204696
:103A500007F094FE3FE7A36F23F00F031B041B0C3A
:103A60004DF2102293427FF4B7AE204604F0EFFFF0
:103A700031E7B4F8FA30B3F5986F0CD1204602F074
:103A800059FF00287FF4AFAE20460EF09DFD204682
:103A900001F0CEFE1FE740F2714293424AD06FF42C
:103AA000986213449AB20A2A3FF696AE0A2B3FF662
:103AB00093AE01A252F823F077380008D9370008F6
:103AC000E53A0008613B0008D9370008D9370008FB
:103AD000D9370008D9370008D9370008D937000886
:103AE000E73B0008204602F097FC00287FF47BAEFD
:103AF00020460EF069FD20460AF050FD00287FF4B4
:103B000072AE20460EF060FD20460AF053FA0028FF
:103B10007FF469AE20460EF057FD204603F08EFB81
:103B200000287FF460AE20460EF04EFD20460AF0DD
:103B3000EFF9D0E6204602F0FDFE00287FF453AEF8
:103B400020460EF041FD204604F0B8F900287FF42D
:103B50004AAE20460EF038FD20460AF07FF9BAE65C
:103B6000204608F0F1F800287FF43DAE20460EF024
:103B70002BFD204602F050FC00287FF434AE204696
:103B80000EF022FD204604F06FFC00287FF42BAEDF
:103B900020460EF019FD204604F090F900287FF42D
:103BA00022AE20460EF010FD204603F051FC002806
:103BB0007FF419AE20460EF007FD204605F024FAEA
:103BC00000287FF410AE20460EF0FEFC20460AF0DE
:103BD0004BF800287FF407AE20460EF0F5FC204697
:103BE00005F0FAFD77E6204609F0D9FF73E62DE9E6
:103BF000F3411D460446174601232A460E46FFF7A9
:103C000091FA2046FDF714FE9DF8202043680092AB
:103C1000D3F824803A462B463146C04720460EF062
:103C2000D3FC02B0BDE8F081F0B5B7B004460D4654
:103C300017460021C42205A81E4615F09DFD3C9B99
:103C400003933D9B049301A94FF080732046119389
:103C5000CDE901761095FFF7A7FC20460EF0B4FCE5
:103C6000014678B92046FEF7AFFD41F2883168463B
:103C70000FF026FB68460FF02EFB0146204621B1CF
:103C8000FEF772FD002037B0F0BDFEF7E5FD00281D
:103C9000F0D0012803D10B4900F040FCF2E70428E2
:103CA000F0D12046FEF750FD014620460EF0ACFD57
:103CB000C0F30F23BE2BE5D1C0B2003818BF0120DE
:103CC000E1E700BF25C801082DE9F04FDFF8D4B0C7
:103CD0001C46DBF8083043F00103A3B0CBF80830F2
:103CE00007468A4690460FF05BFB24F003058146A9
:103CF0000026AE4220D32B4B641B1E6818D02346EF
:103D000005EB080202A938460EF067FC70BB264D91
:103D100002AB13F8012B86EA02660822002E4FEA56
:103D20004606B8BF6E40013AF8D101308442F0D166
:103D3000CAF8006001201AE00FF032FB09F57A7230
:103D4000824206D201900121002000F027FC019B55
:103D50009946AB1B802B28BF802306EB080202A9E3
:103D6000384601930EF039FC019B18B1002023B0B6
:103D7000BDE8F08F02AA517892F800C0090441EA28
:103D80000C6192F803C041EA0C0192F802C00430C1
:103D900041EA0C218342CBF8001002F10402EAD878
:103DA0008036A6E700300240B71DC104F8B5436E67
:103DB00004460F4616463BB11B6C2BB19D68DB8950
:103DC00023B92A490EF07EFD0020F8BD28490EF0E7
:103DD00004FD012F0BD1274B274A284910F0020F71
:103DE00018BF1A4620460EF06DFD0120EDE77368FE
:103DF00023491B78652B0CBF40F0020620F0020619
:103E00008D420CBF3C214021294441F671322046AD
:103E10000EF0F0FC05F10801012220460EF0EAFC4C
:103E200005F10C0705F11001114A20460EF0E2FCE5
:103E30000122394620460EF0DDFC05F1180132461C
:103E400020460EF0D7FC0822394620460EF0D2FC60
:103E50001C35294620460EF0C0FCC307C5D52046B8
:103E60000EF0B2FB0028F4D0AEE700BF68CA01082C
:103E7000E841E00FE8C00108F0C0010888CA010865
:103E800000000C402DE9F84F0468636E80460F4631
:103E9000154613B90020BDE8F88F1B6C002BF9D034
:103EA0009E681E498E420CBF3C21402141F6713272
:103EB000314420460EF09EFC012206F10801204606
:103EC0000EF098FCFDB106F1100A06F10C093A4615
:103ED000514620460EF08EFC0122494620460EF047
:103EE00089FC0222494620460EF084FC06F11C0B98
:103EF000594620460EF071FCC30706D4D8F80C30A2
:103F0000AB421F4407D30120C5E720460EF05CFBFF
:103F10000028EDD0BEE7ED1AD9E700BF00000C4045
:103F2000F8B505460F460120402116461C4615F0FF
:103F3000C9FE014660B1074B0362074BC460C0E98C
:103F40000176436204612846BDE8F8400EF0BABA33
:103F5000F8BD00BF853E00085D3F00082DE9F34134
:103F600005686C6E0F4690461E46FCB1206CD0B1C1
:103F70000F4A50234FF0005128460EF037FB0D49F1
:103F80003346424628460EF031FB236C9B683A4686
:103F9000CDE900634FF00051064B2846FFF744FE81
:103FA00080F00100C0B202B0BDE8F0812046FAE71F
:103FB00060D0010850000020012908B503D0022973
:103FC00005D0002008BD04490EF038FCFAE702498C
:103FD0000EF003FC80B2F5E7FC81E00F012908B583
:103FE00003D0022906D0002008BDBDE808400449DE
:103FF0000EF00ABC02490EF0F0FB80B2F4E700BFFD
:10400000F881E00F436E2DE9F341044653B11A6C79
:1040100042B11178472901D0492905D12B492046C1
:104020000EF050FC002030E093F83C109568FFF74C
:10403000D5FF05F1540705F1080101220646204687
:104040000EF0D8FB05F10C0846F21A32394620462C
:104050000EF0D0FB4FF48072414620460EF0CAFBB2
:104060004FF4FA7101A80FF02BF91C3529462046B0
:104070000EF0B3FBC2070BD4B6F5007F11D2204679
:10408000002239460EF0B6FB012002B0BDE8F081F7
:1040900020460EF099FA0028C4D101A80EF076FA55
:1040A000E4E74FF40072414620460EF0A3FB294698
:1040B00020460EF092FBC307E1D520460EF084FAAD
:1040C0000028AFD101A80EF061FAF0E797CA010805
:1040D000012908B503D0022906D0002008BDBDE89B
:1040E000084004490EF090BB03490EF076FB000C2B
:1040F000F4E700BFFA81E00FF881E00F2DE9F04FFF
:10410000436E85B004465BB11E6C4EB193F83C50D3
:10411000012D09D0022D6CD04C492A460EF0D2FB5D
:10412000002005B0BDE8F08F494A4A490EF0CAFBAD
:1041300029462046FFF740FF294680462046FFF7E4
:104140004DFF294607462046FFF7C2FF012D814655
:1041500052D0022D5BD04FF0000AB6F802B03E49B3
:10416000CDE902793369CDE9007320467268434690
:104170000EF0A8FB39495B46524620460EF0A2FBE2
:10418000D34503D9364920460EF09CFB35492046DD
:104190000EF098FB022D4AD1334920460EF01DFB4C
:1041A000C0F307224A2A4FEA1043C0B235D04C2A46
:1041B00035D04D2A35D0512A2C4A18BF002201286B
:1041C00031D0022831D02A49A1F11805032808BFAF
:1041D0000D4652682749DBB220460EF073FB6A6831
:1041E000254920460EF06EFB1E4920460EF06AFB64
:1041F0001FE0224A224999E7224920460EF01EFB81
:1042000002460A324FF0010A0AFA02FAA5E71649F5
:1042100020460EF0E2FA020EF3E71B4ACFE71B4AF4
:10422000CDE71B4ACBE71B4DD3E71B4DD1E7012D53
:1042300001D0012075E77378002BFAD0174920468A
:104240000EF0E2FA16490246CBE700BF2BCB01087D
:104250000080E00FCDCA010870CB01089BCB01089C
:10426000DACB010811C00108E481E00FC8D00108D1
:10427000E8D0010806CC01081CCC0108B081E00F91
:10428000F9CA0108E781E00FB0D00108B8D00108F1
:10429000C0D00108D8D00108E0D00108AE81E00FFD
:1042A00032CC010838B5436E0446BBB193F83C20CC
:1042B000531E012B0FD80A490EF08FFA0949054603
:1042C00020460EF08AFA084902462B4620460EF098
:1042D000F9FA012038BD05490EF0F4FA0020F9E79B
:1042E000F481E00FF081E00F3FCC01082BCB0108F7
:1042F00043684FF484719B69184737B5D0F8F04094
:104300002046FFF7F5FFC20721D46368114ADB6935
:104310004FF482712046984763684FF480712046BD
:10432000DB69012298474FF4FA7101A80EF0C8FF2B
:104330002046FFF7DDFF054601A80EF027F9EB0741
:10434000F6D42046FFF7D4FF012003B030BD002093
:10435000FBE700BF18C1ACCF2DE9F04F4A4989B047
:1043600004460EF03AFA4949054620460EF035FA61
:10437000474BB3EB152F35D0464920460EF05EFA79
:104380004FF00109444F4FF00008142307F1900249
:1043900003FB08F5A95C81422DD1404B23652A44DB
:1043A000494620460792FFF707FE494605902046FA
:1043B000FFF714FE494606904FEA802B2046FFF790
:1043C00087FE3D448302442101200493B5F892A066
:1043D00015F078FCDDE90632064690B9002009B0F8
:1043E000BDE8F08F2E4920460EF0F7F94FF0020994
:1043F000C0F30740C6E708F10108B8F1350FC7D18F
:10440000ECE70264D5F8A020606680F83C90CDE926
:104410000132059B234A00933C21D5F8943012F0D9
:104420006FFA236E2049666743F0040323665A46F9
:10443000534620460EF046FA049A4FF000512046AB
:104440000EF032F85A46534600212046FFF768FD29
:10445000B5F89C202AB153464FF07E612046FFF705
:104460005FFD142303FB0877B7F89E2022B10F49A4
:1044700053462046FFF754FD20460D4A0D490DF0E6
:10448000ABFF0120ABE700BFF481E00FF081E00F4C
:104490005ECFD000FE81E00F60D00108054000082B
:1044A000FC81E00F59CC010866CC01080000E10F47
:1044B00082CC010814D5010870B5C668134A26F0ED
:1044C000704323F0F0039342054601D0002070BDF5
:1044D0000DF09AFF04460028F8D00D4B03652846DE
:1044E000FBF7EDFE0B4BC4F8F430C4F8F0502A2172
:1044F000012015F0E7FB0849320F054612F0B6F926
:1045000000236567A3610120E1E700BF0100E60623
:10451000FB420008D102000888CC0108094A38B5DE
:1045200013680BB915F046F89D689C6E284207D0B9
:10453000C3E90001014603F10C00146015F0D8F93D
:104540002346EEE7DC07002038B50FF007FC012812
:104550000546FAD172B6BFF36F8F0E4C23688BB14C
:104560002146201D51F8442B15F042FE2368C4F863
:104570008430094B0022186822602946C4F888203C
:1045800010F049FC62B6BFF36F8FD4F8843003B9E2
:1045900030BF38BDE0070020D0110020F8B51A4C1C
:1045A000D4F88C305A1C2344C4F88C2083F8900033
:1045B0000D4609B9402A06D10FF0D0FB012803D0DF
:1045C0000023C4F88C30F8BD0FF085FC0028F7D02C
:1045D0000E4E0F4FB4F88C3030683A46012110F07F
:1045E00002FC0028F6D0002DEAD0D4F88C30402B05
:1045F000E6D1084D306801232A46194610F0F3FB36
:104600000028DDD1F6E700BFE0070020D011002030
:104610007008002044D5010838B501220A4D114622
:10462000044610F0F8FB05F1440240230121204626
:1046300010F0E1FB28602A682AB920460121BDE874
:10464000384010F0E8BB38BDE007002010B50A4C38
:10465000D4E92123934205D25A1CC4F888201C4473
:10466000207904E00FF037FC10B930BF042010BDF2
:10467000FFF76AFFECE700BFE007002013B5014633
:1046800001A80EF01DFE104CD4E921329A4208D246
:10469000D4E92123934211D3FF200DE0FFF754FF0B
:1046A000F2E701A80EF017FE0028F1D10FF013FC7D
:1046B0000028F3D130BF042002B010BD5A1CC4F84A
:1046C00088201C442079F7E7E007002008461146BF
:1046D00000F082BF38B50B4C23688B420D460AD1DF
:1046E0000948092100F018FF084800F057FF00238F
:1046F000236001232371A368AB4204BF0023A3609E
:1047000038BD00BFB008002046D5010850D50108CB
:104710000148032100F0C0BE80D5010808B5012082
:1047200000F0AAFDBDE808400148022100F0B4BE37
:1047300084D5010810B5064C206840B10DF0B4FFD7
:1047400020680DF035FF2368A3600023236010BDAF
:10475000B00800201FB50F4902AB01AA12F0A6F85D
:10476000022806D10C4B186830B90C48032100F020
:1047700093FE05B05DF804FBDDE9012303A9FFF713
:10478000A3FA10B906480321F1E70399054800F0A0
:10479000EFFEEEE7DED50108B008002087D501085E
:1047A0008BD501088FD5010808B5002000F064FD05
:1047B000BDE8084002484FF4806100F0D9BE00BF58
:1047C00094D5010873B50E46054615F0B9FD0023D2
:1047D000CDE900331049044601AB6A46304612F079
:1047E00065F8022805D00D48032100F055FE02B0FF
:1047F00070BD009AA242F6D802D109480121F4E71F
:1048000001990848A31A8B4228BF0B462A4401216C
:1048100000F0F4FDEBE700BF51D6010887D5010891
:10482000F6CF01083AC801082DE9F0414C0804F11F
:10483000080384B023F0070300AFADEB030D6B4614
:104840000146224618464FEAD30800F014FF104BE9
:1048500000256E4604F8385018683146FCF73EFFD4
:10486000A84207DA0B48294600F016FE1037BD466D
:10487000BDE8F08102D108480221F5E70749072287
:10488000384600F0CEFE0E2100F006FEEEE700BF37
:10489000B0080020A7C0010884D50108CED50108C2
:1048A00010F80B3C662B06D1044B1B681BB1044867
:1048B000022100F0F1BD03480121FAE7B008002011
:1048C000D6D50108F6CF010838B50D4B0546186856
:1048D00038B9986828B9BDE838400A48032100F083
:1048E000DBBD0DF06BFF041E2946074818BF2046AC
:1048F000FFF768FF2046BDE8384014F0A5BB00BFB5
:10490000B008002087D50108A7C0010810B50E4BDC
:1049100004461868ADF5806D48B9986838B90B48F9
:1049200003210DF5806DBDE8104000F0B5BD4FF4DA
:10493000806269460DF0D9FD21466846FFF742FFC7
:104940000DF5806D10BD00BFB008002087D50108AF
:104950002DE9F0439BB01D460B7802AF7A2B16462B
:104960000C4697F8802000F2F4813E2B06D8042BE9
:1049700000F06981212B00F0BF80EAE13F3B3B2B37
:1049800000F2E781DFE813F00001E501E501E50150
:104990003C005F01E5015701A000E800E501E501E9
:1049A000E501E501BB00E501E5012B01E801790125
:1049B000E501E501E501E501E501AE01E501C8021A
:1049C000E501E501E501E501E501E501E501E501B7
:1049D0003C00E501E501E5014500E501E501E501F2
:1049E0007601E5017000E501E5010901E8017901C1
:1049F000F900E501E501EB01E501E501E501C8028A
:104A00000021A94B1868002840F0B980A74803216D
:104A100006E0DFF89482D8F8000040B9A4480321EA
:104A200000F03AFD00206437BD46BDE8F0830DF08C
:104A3000C3FE0546A8B1C31D23F00703E946ADEB4D
:104A4000030D02AED8F8000031460DF0FBFD2A46FA
:104A50003146204600F0E5FD690000F01DFDCD4621
:104A6000E0E794480221DBE78F4D2B68E84613B955
:104A70008F48032124E007F10C038F4907F1080256
:104A8000204611F013FFFB68B3EB560F02D98B4899
:104A9000032115E0DA1D22F00702ADEB020D02AE94
:104AA000BA68286831460DF098FD10B1844803219A
:104AB00006E03146FA68204600F0B3FDF968490087
:104AC00000F0EAFCC546ADE7774D28680028A5D080
:104AD0000DF072FE024678B1C31D23F00703E846CD
:104AE000ADEB030D02AE611C304600F0C4FD28683A
:104AF00031460DF0C0FDC5467248022190E76A4E6E
:104B00000023C7E901333368E846002BB0D007F132
:104B10000C036D4900933A1D07F10803204611F07C
:104B2000C5FED7E902216D1AB2EB550FAFD8D31DE0
:104B300023F00703ADEB030D02AD2144284600F03E
:104B40009AFDBB68796830682A460DF04FFD002851
:104B5000ACD15C480221B3E700233B72FB605B49A8
:104B600007F10C0307F10802204611F09FFEFB68D5
:104B7000012BC1D95248032152E7012141E70DF031
:104B8000A0FD534B01221A70474B1A6812B95148C5
:104B9000032145E701221A7344E7434D2B68002B9C
:104BA0003FF43CAF9B6A002B3FF45BAF4A4907F1EF
:104BB0000802204611F07AFE2868B968082307F138
:104BC0000C020DF029FD054600283FF427AF0246F0
:104BD00007F10C01204600F024FD690020E7324E69
:104BE0003368002B3FF41AAFDB6A002B84D03B49BB
:104BF00007F10C0307F10802204611F057FEFD688B
:104C00002544284615F09CFB4408E31D23F00703C8
:104C1000E846ADEB030D0DF108092246294648464A
:104C200000F029FDB968306823464A460DF0FFFCC4
:104C300000288EDC1CE7002A00F08B802A462146E3
:104C400000F02CFAEFE6184D286840B1204B012205
:104C50001A700DF0ADFC2B68AB6000232B6023783D
:104C6000442B03D11748022100F016FC002000F06D
:104C700003FBD7E6FFF75EFDD4E60B4C25681DB1BC
:104C800028460DF011FDCDE6A06800283FF4CAAE1D
:104C900013490DF0DDFB206018B12946284604F0C9
:104CA000EDFC2068EDE700BFB0080020FDD501084D
:104CB000D9D501084DD50108DDD50108E6D5010893
:104CC00087D5010884D50108EAD50108F6D5010881
:104CD000980F00204CD5010801D6010806D601081E
:104CE000080000209C4E3368002B3FF497AE07F17C
:104CF0000C0300933A1D07F108039849204611F070
:104D0000D5FDD7E90232AD1A9D4202D29448032163
:104D100086E67968306822440DF068FC00283FF48C
:104D2000EBAE27E7484615F00BFB49460646024620
:104D3000204611F007FB28B9D8F80430A91BA019A8
:104D400098476FE608F10808D8F80090B9F1000F0D
:104D5000E8D18448002163E6DFF83C82F4E7824929
:104D600000263A1D2046C7E9016611F09FFD012883
:104D70000FD17E4978680DF086FB774B18600028CC
:104D80003FF4F8AE3146304604F078FC78480C2108
:104D900046E678490622204611F0D4FA10B9FFF70A
:104DA000C9FCA9E674490422204611F0CBFA002878
:104DB00062D12379DFF8E4913B2B07F10C054FF02A
:104DC000000314BF043405343B73A846267866B943
:104DD000614C2568D5B3284641460DF076FC206825
:104DE0000DF062FC654803211AE6404615F0A8FA6A
:104DF00003305228ECD83B2E08D12B46202203F852
:104E0000012B00226A7001341D46DFE776B219F8E3
:104E1000063013F0440FDBD094F9013019F8033059
:104E200013F0440FD4D002222146284600F023FC80
:104E30002B78202B01D05C2B03D16B705C2305F801
:104E4000013B00236B7002340135BFE7A0680028E6
:104E50003FF490AE45490DF0FBFA206000283FF486
:104E600089AE41460DF031FC20680DF01DFC29464D
:104E7000284604F003FCB5E7414907F108033A1D51
:104E8000204611F013FD02280FD1334C2068002872
:104E90003FF4C4ADD7E901120DF072FE00287FF493
:104EA0002BAE20680DF074FFB8E5364907F10C030E
:104EB0003A1D204611F0FAFC01280DD1264EFA6861
:104EC000306838B1AB1A796822440DF0B5FE00287D
:104ED0007FF412AE3068E5E72B49204614F014FD4C
:104EE00038B91D4B18680DF053FF00287FF404AE4D
:104EF00094E52046254914F007FD044600287FF478
:104F000028AF154D2B79002B3FF4F6AD2048032137
:104F100000F0C2FA2C7185E50F4D2B68002B3FF491
:104F20007DAD07F108031B4900933A1D07F10C03FF
:104F3000204611F0BBFC2378397928685A2BD7E931
:104F4000023205D10DF0DFFB0028BFF614AD11E6EB
:104F50000DF009FCF8E700BFB00800200ED60108EC
:104F6000E6D50108A7C001081AD6010808000020EC
:104F700028D6010835D601083CD6010841D60108DB
:104F800045D601085DD6010872D601087DD6010814
:104F90004CD5010886D601083CD70108250B02082C
:104FA00007B51346002200920A4601460248FFF761
:104FB000CFFC03B05DF804FB08000020044B186828
:104FC00008B10DF075BB0348032100F065BA00BFBE
:104FD000B00800204CD5010813B5194C206830B931
:104FE0001848032102B0BDE8104000F055BA01A9ED
:104FF0000DF062FB98B1144A00230138237313703B
:1050000005281BD8DFE800F0030D1A1A12180F4804
:105010001D2100F0ADFA0E48012104F02FFB02B073
:1050200010BD02210B4800F0A3FAF8E7019A0A48E4
:10503000052100F09DFAF2E70B21F3E70521F1E7E6
:10504000B00800204CD50108980F0020D9F60108BF
:105050009AD60108A7D60108ADD6010873B5054652
:1050600004F086FA012604464FF48061204600F0E1
:1050700031F90128034602D12278042A0BD0009688
:105080004FF4806221462846FFF762FC2378462BC6
:10509000EAD102B070BD4FF0FF30FAE7F0B54E78BC
:1050A00087B02D2E0CBF022701270DF10F030446F8
:1050B00008460025009315498DF80F5005AB04AA4A
:1050C0003844CDE9045511F0F1FB002808DC42F228
:1050D0000F7384F83A5023874FF0FF3007B0F0BDCC
:1050E000012808D125870023049884F83A302D2E12
:1050F00008BF4042F2E7059B23870328F3D19DF8C0
:105100000F30A3F1430253425341EDE78CD701081E
:1051100013B5044604980090034800F029FA20468D
:1051200002B0BDE8104099E795D7010810B50446D4
:10513000034800F01DFA2046BDE810408EE700BF8E
:10514000ADD7010810B50446034800F011FA204617
:10515000BDE8104082E700BFB9D7010810B504468A
:10516000034800F005FA2046BDE8104076E700BF8E
:10517000CED7010810B50446034800F0F9F92046DF
:10518000BDE810406AE700BFE4D7010813B5044644
:1051900004980090034800F0EBF9204602B0BDE807
:1051A00010405BE7FAD7010810B50446034800F049
:1051B000DFF92046BDE8104050E700BF12D80108D3
:1051C00010B50446034800F0D3F92046BDE810406E
:1051D00044E700BF22D8010810B50446034800F098
:1051E000C7F92046BDE8104038E700BF35D80108B0
:1051F00010B50446034800F0BBF92046BDE8104056
:105200002CE700BF44D8010810B50446034800F05D
:10521000AFF92046BDE8104020E700BF5CD8010888
:1052200010B50446034800F0A3F92046BDE810403D
:1052300014E700BF69D8010838B5A0F12303012B9A
:1052400004460D4603D97D2801D02A280FD100211C
:105250007D2084F02004FFF7A1F900212046FFF70C
:105260009DF92B787D331C44E4B22C7038BD0021AD
:10527000FFF794F92B78F6E738B5054D044628B9C1
:105280002B781BB101212B20FFF788F92C7038BD3A
:10529000BD08002070B506460C460025FFF7D6F97C
:1052A00023280DD008D8042811D02128F5D0A542F4
:1052B0000CD270550135F1E72428F8D1012008E01F
:1052C000002474553146284605F0A5FB00203070B7
:1052D000002070BD2DE9F0470027DFF81CA18046B3
:1052E0000D46B946FFF7B2F9B9F1040F7DD8DFE8F2
:1052F00009F00C0339475500002634460FE02128F9
:1053000020D0042827D0FFF7A1F9242888F800002E
:10531000F5D1002DF7D0FFF799F90024264624286F
:105320004FF0010963D023285AD006447D28F6B2F5
:1053300050D0A144A94508F80400E4D2FFF786F94B
:105340004C46ECE729464046FFF7A4FF98F80030AA
:10535000042B81464BD1002388F8013001242046DC
:10536000BDE8F087002633465C1C80F02002AC428A
:1053700008F80320C7D23044C6B2FFF767F9CEE77A
:10538000002634469AF800301BB900F066F9070190
:10539000FFB2A542B7D9FFF759F901E0002634461C
:1053A0009AF8003073B900F058F93843C7B2B742E1
:1053B0004FF001010AD02D20FFF7F0F89AF80030E5
:1053C000002BA0D0002308F80430C8E72B20FFF7FB
:1053D000E5F8F7E7A54296D9FFF738F92346C3E782
:1053E000A54290D9FFF732F9CCE74FF00009002D24
:1053F0007FF478AF87E700BFBD0800202DE9F74FA5
:1054000004460F461546984604264FF0000A002130
:1054100024208DF803A0FFF7C1F8A14607EB040B89
:10542000D94527D1A94608EB050BD94529D100213B
:105430002320FFF7B3F89DF80330154A032101A894
:1054400011F05EFA9DF804000021FFF7A7F89DF81F
:1054500005000121FFF7A2F80E4B1B783BB94FF472
:10546000FA60FFF70BF92B2801D0013ECFD103B032
:10547000BDE8F08F19F8010B0DF10301FFF7DCFE19
:10548000CEE719F8010B0DF10301FFF7D5FECCE7CC
:10549000A8D60108BD0800202DE9F74304460E46B2
:1054A00004254FF00008002124208DF80380FFF729
:1054B00075F8274606EB04094F4522D10021232029
:1054C000FFF76CF89DF80330114A032101A811F091
:1054D00017FA9DF804000021FFF760F89DF8050019
:1054E0000121FFF75BF80B4B1B783BB94FF4FA60D7
:1054F000FFF7C4F82B2801D0013DD4D103B0BDE89B
:10550000F08317F8010B0DF10301FFF795FED3E7C8
:10551000A8D60108BD08002037B504460D46252051
:1055200000218DF80310FFF739F82544AC4216D15D
:1055300000212320FFF732F89DF803300B4A0321A6
:1055400001A811F0DDF99DF804000021FFF726F80D
:105550009DF805000121FFF721F803B030BD14F8D4
:10556000010B0DF10301FFF767FEDFE7A8D6010885
:105570000FB407B504AA01A852F8041B009214F056
:10558000C9FD011E02DD0198FFF786FF019813F0A7
:105590005BFD03B05DF804EB04B07047F8B5064658
:1055A00014F0CEFE47000546791C012014F08AFB5A
:1055B000044670B12A46314600F033F805483B46B0
:1055C00022460121FFF71AFF2046BDE8F84013F0FC
:1055D0003BBDF8BD79D8010807B50A46014601A8C8
:1055E00014F098FD002805DB0198FFF7D7FF01981C
:1055F00013F02AFD03B05DF804FB0FB407B504A94E
:1056000051F8040B0191FFF7E7FF03B05DF804EBDD
:1056100004B07047092884BF0730C0B23030C0B230
:10562000704738B5034604468D18A94204F10204B8
:1056300004D1002103F81210184638BD087800097B
:10564000FFF7E8FF04F8020C11F8010B00F00F005F
:10565000FFF7E0FF04F8010CE7E7A0F13003024692
:10566000D8B2092806D9A2F13703D8B2102884BFCE
:10567000573AD0B27047F8B5044606468518AE4290
:1056800001F1020101D12046F8BD11F8020CFFF72B
:10569000E4FF074611F8010CFFF7DFFF40EA0710AF
:1056A00006F8010BEBE7000038B5074D0446294624
:1056B00045F65A220DF09EF8294620464AF2A55298
:1056C000BDE838400DF096B82C00024010B50468D3
:1056D0002046FFF7E9FF2046024900220DF08AF834
:1056E000012010BD3000024010B504460068FFF7ED
:1056F000DBFF637E012B12D0022B12D101220A495B
:1057000020680DF077F824682046FFF7CDFF20468B
:1057100006494FF6FF720DF06DF8012010BD022210
:10572000EDE70020FAE700BF200002403000024011
:1057300073B5054601A80DF0C3FD0C4E1024E30619
:1057400001D4012009E0314628460DF046F8044610
:1057500028460CF039FF10B1002002B070BD01A83E
:105760000DF0B9FD0028EAD0F6E700BF20000240A6
:1057700010B50446126800680DF03CF820684FF43C
:105780007A71BDE81040D3E710B5044600220068E6
:105790000DF030F820684FF47A71BDE81040C7E78B
:1057A00013B504460CF080FF6FF00103019304234E
:1057B0000DEB03020F2120460CF039FF031F584266
:1057C000584102B010BD38B50446FFF7E9FF204646
:1057D000FFF76AFF1449032220460DF00BF84FF43F
:1057E000FA712046FFF7A4FF0546D8B12046FFF71F
:1057F0005BFF0E494FF6FF7220460CF0FBFF0022C4
:10580000114620460CF0F6FF4FF47A612046FFF770
:105810008FFF05462046FFF747FF04490022204638
:105820000CF0E8FF284638BD20000240300002405E
:1058300038B51C4904460CF0D0FFB0F5804F054642
:1058400004D0B0F5004F29D0002038BD4FF40062DD
:105850004FF0007120460CF027FE134B6367134B8B
:105860006365134B23654021012014F02BFA014698
:1058700090B104234FF40072C0E90323FF230376A1
:105880000C4B03620C4B43620C4BC3610C4B8560A9
:10589000836220460CF016FE0120D6E74FF48052BA
:1058A000D6E700BF700C100010D90108A1570008FE
:1058B000C75700088957000871570008E9560008C3
:1058C000CD5600082DE9FF41476E904606460C462E
:1058D00007F10E02002332F8021FA142DDB245D0CB
:1058E00019B10133042BF6D100250E2200210DF150
:1058F000020013F041FF04238DF80130230545BF5A
:1059000040F61803ADF802300123022314F4E06FCF
:105910008DF800400CD004AA02EB4301302201F8BC
:105920000F2CC4F302220133D200DBB201F8102C99
:10593000B8F1000F0CD004A914F4805F01EB43030D
:1059400014BF2022242203F80F2C002203F8102C6D
:105950007968102301F5007103FB05116A46304692
:105960000CF044FE05F1080327F81340284604B064
:10597000BDE8F081F8B5466E1F4601F10803054603
:1059800036F813301B050C4603D57168A0310CF0B6
:1059900031FF7168220402F470223A432846A43190
:1059A0000CF028FF716828460122BDE8F840B031AC
:1059B0000CF020BF38B5456E0446696820461431A6
:1059C0000CF00BFFC207F8D569680122143120469C
:1059D0000CF010FF6968204614310CF0FEFE03073E
:1059E00007D5696820460822BDE8384014310CF01C
:1059F00001BF38BD38B5154600220446FFF762FFE7
:105A0000002301462A462046FFF7B4FF2046BDE8A2
:105A10003840CFE738B5446E6168402304F118027E
:105A200001F5007105460CF0E1FDE368022B0BD097
:105A30006168094A183128460CF0DCFE6168E268AA
:105A40001C3128460CF0D6FE2846A26803490CF00B
:105A5000D1FE012038BD00BFF05AF05A94ED00E0AD
:105A60002DE9F047A0B01446DDF8A0A0D0F864807E
:105A70001FFA8AF73A4605469946FFF723FF3B4649
:105A8000014622462846FFF775FF0026564504D3F7
:105A9000284620B0BDE8F0478CE7D8F80410284627
:105AA000F4310CF09AFE10F0FF01F6D1BC1BA4B249
:105AB0008022684613F060FE802C28BF802409EB0A
:105AC00006012246684614F093FBD8F80410E31C44
:105AD00023F003036A4601F5C07128460CF086FDE9
