:020000040800F2
:1000000000000420DD180008D9180008D7180008DF
:10001000D7180008D7180008D718000800000000FB
:10002000000000000000000000000000D9180008D7
:10003000D918000800000000D91800085B03000868
:10004000D7180008D7180008D7180008D7180008D4
:10005000D7180008D7180008D7180008D7180008C4
:10006000D7180008D7180008D7180008D7180008B4
:10007000D7180008D7180008D7180008D7180008A4
:10008000D7180008D7180008D7180008D718000894
:10009000D7180008D7180008D7180008D718000884
:1000A000D7180008D7180008D7180008D718000874
:1000B000D7180008D7180008D7180008D718000864
:1000C000D7180008D7180008D7180008D718000854
:1000D000D7180008D7180008D7180008D718000844
:1000E000D7180008D7180008D7180008D718000834
:1000F000D7180008D7180008D7180008D718000824
:10010000D7180008D7180008D7180008D718000813
:10011000D7180008D7180008D7180008D718000803
:10012000D7180008D7180008D7180008D7180008F3
:10013000D7180008D7180008D7180008D7180008E3
:10014000D7180008D7180008D7180008D7180008D3
:10015000D7180008D7180008D7180008D7180008C3
:10016000D7180008D7180008D7180008D7180008B3
:10017000D7180008D7180008D7180008D7180008A3
:10018000D7180008D7180008D7180008D718000893
:10019000D7180008D7180008D7180008D718000883
:1001A000D7180008D7180008D7180008D718000873
:1001B000D7180008D7180008D7180008D718000863
:1001C000D7180008D7180008D7180008D718000853
:1001D000D7180008D7180008D7180008D718000843
:1001E00008B501F0E5FB38B54FF4C06001F090F8B8
:1001F0004FF0E023D3F8F03D13F0010F09D14F4B3E
:10020000D3F8743803F07E43B3F1806F21D000211E
:1002100000E00021494BD3F8742842F08072C3F803
:100220007428D3F8742822F08072C3F8742891B926
:100230004FF44053D3F8F82F414B9A4206D14FF474
:100240004053D3F8FC2F3F4B9A4204D000F093FA6E
:1002500008E00121DEE74FF440530022C3F8F82FF5
:10026000C3F8FC2F4FF4804001F052F819213648B2
:1002700000F0F6FF40F2016001F04AF8334C012330
:1002800000221946204600F076FE01230022114686
:10029000204600F096FEA4F580640125C4F81854A9
:1002A000C4F818544FF480720021204600F0AFFECD
:1002B0004FF4807300220221204600F05CFE4FF4D0
:1002C00080732A460021204600F07BFE1B4BD3F8AA
:1002D00000282A43C3F80028D3F8082822F4C002D3
:1002E000C3F80828D3F8082822F0E062C3F80828E9
:1002F0004FF4806300222946204600F03CFE4FF474
:10030000806300221146204600F05BFE4FF08063C0
:10031000A361A361002001F033FB0D4801F02AFB2B
:1003200001F038FB01F03DFB002000F023FA094802
:1003300000F098F900F0BCF9002038BD0030024010
:100340007ADA07B0EDFEADBAEC22000800040240F4
:10035000E0322900B8220008704708B54FF48061E8
:10036000014800F0FFFD08BD00000240C27883781C
:100370001B0403EB0263427803EB0223007818446A
:100380007047C109144B98421CD8144BA3FB0102BF
:10039000D208104602EB8202A1EB42023032104931
:1003A00081F84020A3FB0023DB081A4603EB8303FC
:1003B000A0EB4303303381F83F3002F1300381F882
:1003C0003E307047064B392283F83E2083F83F20A9
:1003D00083F84020704700BF7FF30100CDCCCCCC28
:1003E0000400002010B51E4B93F84830042B02D0B7
:1003F000072B31D010BD00F021FD1A4BB3F80834A3
:10040000FBB9184C601CFFF7B1FF2378412B06D0D5
:1004100000F022FD124B052283F84820EAE7124B38
:100420001B68834203D8D4F80C34834206D80C4BA3
:100430000A2283F8482000F00FFDDBE700F05AF9AC
:10044000E6E70849D1F80404023BB1F8002400EBC8
:10045000832000F061F9DBE7FFF7C2FECAE700BFC7
:10046000040000205C00002000000020144B93F8E2
:100470004830062B1AD070B504460A2B1CD0032B2B
:1004800001D0002070BD0E4B042283F848200D4D92
:10049000284610F8016BFFF769FF0146B5F80824FC
:1004A000304600F049F920600020EBE7044B0722BA
:1004B00083F8482000207047024B93F81004E1E7CE
:1004C000040000205C000020F0B583B017680A78B3
:1004D00002F07F02212A40F09C800C461E464D7897
:1004E0006B1E052B00F29980DFE803F0034B723896
:1004F0008C450EB1338823B9494B062283F8482036
:1005000088E04B884748A0F808343288A0F80024D7
:10051000394601F02AFE6388DBB9424B1B78212B58
:1005200017D14148FFF722FF404B1B68834204D894
:100530003C4BD3F80C34834208D83A4B012283F861
:100540001024374B0A2283F8482063E0354BC3F868
:100550000404334B032283F848205BE0304B93F8CC
:1005600048300A2B01D0012554E02D4B022283F89C
:10057000482001254EE02A4B022283F8482001251D
:1005800048E0274B93F84830052B18BF022B01D0C9
:10059000092B17D1628893B22249A1F80824204A76
:1005A000092182F84810012B01D8012532E01D4AAB
:1005B000D2F80414023B328801EB8321384601F063
:1005C000D4FDF2E70122002100F016FF002521E012
:1005D0000024019401A8FFF749FF3870019B7B704C
:1005E000019B1B0ABB70BDF80630FB700C4B93F8E7
:1005F00048303B717C7106233380089B0C4A1A609B
:10060000012507E0064B93F848303B700125358003
:1006100000E00025284603B0F0BD0025FAE700BF42
:10062000040000205C0000205D000020000000208D
:10063000E503000810B500F0DFFB044640280CD0AD
:10064000A4F10800FFF79DFEA40204F10064044B2E
:10065000C3F80C4400F0A6FB10BD8024F0E700BFF7
:100660005C00002030B585B00446FFF7E3FF0D4B7A
:100670004FF4806202920C4D05F214420192042262
:10068000009203F1100203F12001204600F050FE19
:10069000C5F81408054B7F22212100F0B2FF05B0F8
:1006A00030BD00BFFC2100085C000020C904000828
:1006B00008B5034BD3F8140800F06AFEF9E700BF51
:1006C0005C000020B0F1006F0ED30123074A52F8FE
:1006D00023201AB1824201D80133F7E722B1013B4E
:1006E00003F01F03024A1370704700BF6422000822
:1006F0004D00002008B5064B1B78064A52F823200F
:10070000824200D008BD0221184600F0D3FBF9E771
:100710004D00002064220008F8B507460E46154635
:10072000002406E0A30856F82310E01900F09EFB11
:100730000434AC42F6D3F8BD002A08BF412801D0EA
:100740001A20704710B50C460846FFF7BBFF074B51
:100750001B78074A52F82320A24201D01A2010BD6C
:10076000034A02EB4303188FF9E700BF4D00002056
:100770006422000870470B4B1A6811680A4B0B4043
:10078000B3F1005F00D0704722F0FF024FF0E0238A
:10079000C3F8082D034B1B6881F30888D3F804F0D5
:1007A000FEE700BF000000200000F02FF0B5059C20
:1007B00011F07F0C24D011F0800F61D103F07F0184
:1007C00041F400210CF1400540F825104FEA4C158A
:1007D000404EA9510CF1580E4FEA4E1EA6F5316657
:1007E0005EF806503C4941EA82421A432A434EF8D9
:1007F00006208CB30CEB4C0C00EB8C00C4672BE098
:100800003F2B2AD9354A0021C2F8001903F07F0492
:10081000324AC2F81049D2F8001941F00061C2F81A
:1008200000192F492143C0F80011C2F8101BD2F85B
:10083000001B41F00841C2F8001B9B08D0F8EC10E7
:10084000498E41EA03419162B0F8F82013449BB20B
:10085000A0F8F830A0F8FA30F0BD1F2B04D91F4AD9
:100860000121C2F80019D1E70F2B04D91B4A02213C
:10087000C2F80019CAE7194A0321C2F80019C5E7EE
:100880009908B0F8F8700CF14005144E47EA01479A
:1008900046F82570B0F8F8502944A0F8F8104FEA4F
:1008A0004C1103F07F070F4D4F510CF148056D01BE
:1008B000AF590D4941EA824242EA8C5213433B430D
:1008C000AB51002CC8D00CEB4C0C00EB8C0CCCF8D2
:1008D0007840C1E7100B0440008000940000044001
:1008E000000008201009044000800018B0F8FA3019
:1008F000A0F8F830012206E00E4B13445B011968A2
:1009000000290DDB0132082A0FD80B4B13445B0181
:1009100019680029F0DA196841F080411960EBE7A5
:10092000196841F080411960ECE7044B4FF486628E
:100930001A6170474820000258200002000004405D
:1009400070B501F07F0101F148004001194C0559D3
:10095000002D2ADB4FEA411E174D5EF805501FFAA5
:1009600085FCDD1CBCEB950F21D343F40025134E11
:100970004EF80650A6694FF0000EC4F818E005596D
:1009800045F0044505510AE001F1010C4FEA0C3C29
:1009900052F8044B07484CF800400EF1040E734522
:1009A000F2D8044A9661184670BD0020FCE700208A
:1009B000FAE700BF00000440180904401009044091
:1009C000F0B583B001EB8114E700194E06EBC404C7
:1009D00004F10803B0F81051B5F5007F28BF4FF4BB
:1009E00000752A4609E01349096843F8041BB0F86A
:1009F00010110439A0F81011043A032AF3D86AB18F
:100A00000C4909680191B0F8101103290BD8002195
:100A1000A0F8101101A9184601F0A7FB0123F35516
:100A2000656003B0F0BD0439A0F81011F2E700BF13
:100A3000880900200010044038B501EB81110C4DED
:100A400005EBC10C15F8314014B90024204638BD1F
:100A50001046CA00DCF804108B42A8BF0B469CB2BB
:100A60000023AB5422460CF1080101F07EFBEDE7B8
:100A7000880900202DE9F0477F4B5F699B693B4265
:100A800000F0EA80064617F4005424D117F4802FB2
:100A900043D117F0100F16D0774B1B6A03F4F011F7
:100AA00003F00F05C3F30A13A6F8103105EB851206
:100AB0004FEAC20C714800EBC202B1F5802F2ED074
:100AC000B1F5402F37D017F4002F00F0A9806A4B02
:100AD000D3F8189850E0684B4FF400525A61D0F8A0
:100AE000EC305B8EA0F8F83000F062FCB4E0013529
:100AF000082DCED86A01624BD15811F0010FF6D003
:100B00000121D15005EB450306EB83039B6F002BBE
:100B1000EDD0E9B230469847E9E72546E8E72BB93A
:100B2000012300F80C3000235360CCE729463046FF
:100B3000FFF746FFC7E763B9012300F80C30002335
:100B40005360082306F1340229463046FFF774FF4C
:100B5000B9E729463046FFF733FFF2E74FF004418B
:100B60003AE04FF004410A431A6018F0100F02D027
:100B7000102345F80A300134082C51D804F1100232
:100B80000123934013EA090FF5D06501DFF8FCA0BB
:100B900055F80A8045F80A8018F0010F1ED001238D
:100BA00045F80A3004EB440306EB8303DB6F13B113
:100BB000E1B23046984704F1400356F82320314B08
:100BC000EA50314B23445B011A68311991F8FC104B
:100BD0000029C3D04FF008410A431A6018F0080FEB
:100BE000C3D0082345F80A3004EB440306EB830323
:100BF000D3F8803013B1E1B23046984704F1400396
:100C000056F823201F4BEA501F4B23445B011A6800
:100C1000311991F8FC100029A3D04FF00841A2E748
:100C200017F4006F06D0736A03B19847124B4FF464
:100C300000625A61002F11DB17F0080F05D0F36A2C
:100C400003B198470C4B08225A61F36A73B10A4A00
:100C5000936943F008039361BDE8F087B36A03B179
:100C60009847054B4FF000425A61E5E7024A936905
:100C700023F008039361EFE7000004408809002097
:100C800008090440100B044058200002080B0440DF
:100C900000B583B040F69F0000F03AFB40F21E60C2
:100CA00000F036FB40F21D6000F032FB374B0222B1
:100CB0005A619A6B42F400029A63354AD2F8183CA2
:100CC00043F00403C2F8183C314BD3F8183C13F03E
:100CD000020FF9D02E4B0A22C3F8002CD3F80C1CBB
:100CE00040F613720A43C3F80C2CD3F8002C42F0E0
:100CF0000102C3F8002C00230193019A254B9A426C
:100D000040D9224B1B69002BFBDA204A136943F0C0
:100D1000010313611D4B1B6913F0010FFAD11B4B2B
:100D2000D9681D4A0A43DA600022C3F8002E4FF446
:100D300000725A621948A0F8F820D3F8042842F04B
:100D40000202C3F804289A6842F001029A60144A29
:100D50009A614FF0FF32C3F81C28D3F8142842F0F0
:100D60000902C3F81428D3F8102842F00102C3F88E
:100D70001028D3F8042822F00202C3F8042803B094
:100D80005DF804FB019B01330193B6E700000440CA
:100D9000007001403F0D0300003C0040740800203B
:100DA00010280C8030B400210D4600E001311729D5
:100DB00018D8C80801F0070321F00702D21A073239
:100DC00013B90B4C54F820509B0025FA03F303F0A1
:100DD0000F0303F13000074CA0543928E6D937330C
:100DE000A354E3E7034B00221A7630BC704700BFE0
:100DF000107AF01FD01B002008B50D4B1B68C3F301
:100E00000B0340F25142934209D040F252429342C6
:100E100007D040F24942934207D000F0D1FD054B84
:100E200000E0054B186880B208BD024BFAE700BF2E
:100E3000002004E022F4F01F227AF01F044B054A40
:100E4000C3F8042C02F18832C3F8042C704700BFA9
:100E50000030024023016745034AD2F8103C43F0BA
:100E60000043C2F8103C70470030024070B50546A0
:100E70000E4600F061F80E4CD4F8103C23F4407399
:100E8000C4F8103CD4F8103C43F40073C4F8103C90
:100E9000D4F8103C43F00103C4F8103C2E6000F07D
:100EA0004BF8D4F8103C23F00103C4F8103C70BD9B
:100EB0000030024038B505460C4600F03DF81D4BA9
:100EC000D3F8102C22F44072C3F8102CD3F8102C55
:100ED00042EA0422C3F8102C0B2D01D90435EDB2DF
:100EE000144CD4F8103C23F0F803C4F8103CD4F8A8
:100EF000103CED00EDB22B43C4F8103CD4F8103C8C
:100F000043F00203C4F8103CD4F8103C43F480339F
:100F1000C4F8103C00F010F8D4F8103C23F00203A1
:100F2000C4F8103CD4F8103C23F0F803C4F8103C8B
:100F300038BD00BF00300240BFF34F8F034BD3F8E2
:100F40000C3C13F4803FF9D1704700BF00300240E1
:100F5000034AD2F8003C43F40073C2F8003C7047E7
:100F600000300240436901EA030221EA030141EA39
:100F7000024181617047F0B50668C5684FF0000C0A
:100F800003E00CF1010C1FFA8CFCBCF10F0F15D81B
:100F900043FA0CF414F0010FF3D04FEA4C0E032483
:100FA00004FA0EF426EA040601FA0EF73E4325EA97
:100FB000040502FA0EFE4EEA0505E2E70660C5608A
:100FC000F0BD10B5012906D0416821EA0301416056
:100FD0008468002105E0416819434160F8E7013168
:100FE00089B20F2911D843FA01FC1CF0010FF6D089
:100FF0004FEA410C4FF0030E0EFA0CFE24EA0E04E9
:1010000002FA0CFC4CEA0404E9E7846010BD30B538
:10101000046A456A00230DE04FEA830E4FF00F0C7F
:101020000CFA0EFC24EA0C0C01FA0EFE4EEA0C043B
:1010300001339BB2072B05D842FA03FC1CF0010FC9
:10104000EAD1F5E708230FE0A3F1080C4FEA8C0C76
:101050004FF00F0E0EFA0CFE25EA0E0E01FA0CFCF4
:101060004CEA0E0501339BB20F2B05D842FA03FC64
:101070001CF0010FE8D1F5E70462456230BD0000C5
:10108000042826D8DFE800F0030A11181F00114BCE
:10109000D3F8003813F0007FF9D070470D4BD3F828
:1010A000003813F4003FF9D070470A4BD3F80038EA
:1010B00013F0020FF9D07047064BD3F8703813F0D5
:1010C000020FF9D07047034BD3F8743813F0020FB6
:1010D000F9D070470030024001280BD0022811D00F
:1010E00000B170470B4BD3F8083803F00303022B11
:1010F000F8D17047074BD3F8083803F00303012BEE
:10110000F8D17047034BD3F8083813F0030FF9D127
:10111000E7E700BF0030024004282BD8DFE800F0EA
:10112000030B131B2300144AD2F8003843F08073DA
:10113000C2F800387047104AD2F8003843F48033C0
:10114000C2F8003870470C4AD2F8003843F0010367
:10115000C2F800387047084AD2F8703843F00103EB
:10116000C2F870387047044AD2F8743843F001036B
:10117000C2F87438704700BF0030024004282BD8F2
:10118000DFE800F0030B131B2300144AD2F80038E9
:1011900023F08073C2F800387047104AD2F8003844
:1011A00023F48033C2F8003870470C4AD2F8003874
:1011B00023F00103C2F800387047084AD2F87038AB
:1011C00023F00103C2F870387047044AD2F874382B
:1011D00023F00103C2F87438704700BF00300240AA
:1011E000044AD2F8083823F003030343C2F808384E
:1011F000704700BF00300240044AD2F8083823F498
:10120000604343EA4033C2F8083870470030024078
:10121000044AD2F8083823F4E05343EA8023C2F8A2
:101220000838704700300240044AD2F8083823F0EA
:10123000F00343EA0013C2F8083870470030024058
:1012400040EA81105208013A40EA024040EA036055
:1012500040F48000014BC3F804087047003002409E
:1012600038B504460D460220FFF756FF0220FFF76F
:1012700007FF0020FFF7B4FF0120FFF74DFF01201B
:10128000FFF7FEFE40F61C0000F042F8E07A00F0A6
:10129000AFFB237B002B31D1207AFFF7C5FF607AAB
:1012A000FFF7B6FFA07AFFF7A7FF0020FFF766FF62
:1012B000E378A2782188E8B2FFF7C2FF0020FFF7A9
:1012C0002BFF0020FFF7DCFE606800F085FBFFF7D6
:1012D0003FFE00F077FB0220FFF782FF0020FFF7C0
:1012E000FBFE2269074B1A606269074B1A60A2690C
:1012F000064B1A600220FFF741FF38BD00F096FB55
:10130000CAE700BF58000020540000205000002011
:101310004FEA501C05495CF8013000F01F00012223
:10132000824013434CF80130704700BF0038024040
:10133000F8B504460F4616461D4603689847C0F8A0
:10134000EC4007604660C560069B03610023C0F85F
:10135000F030C0F8F430079A4261BDF820200283D3
:10136000084AC0F88020084AC267084A826705E038
:1013700003F13602002140F822100133032BF7DD80
:10138000F8BD00BF47160008831600080F170008B5
:1013900008B5D0F8EC305B6A984708BD30B583B02B
:1013A000D0F8EC40A468069D0095A04703B030BD7E
:1013B00030B583B0044600258576C5760368DB79B1
:1013C00000952A462946FFF7E9FFD4F8EC305B6820
:1013D000294620469847236A03B1984703B030BD99
:1013E00010B5D0F8EC40E469A04710BD10B5D0F8B6
:1013F000EC40246AA04710BD08B5D0F8EC301B695A
:10140000984708BD08B5D0F8EC309B69984708BDEF
:1014100008B5D0F8EC305B69984708BD884207D220
:1014200040B190FBF2F302FB13022AB10020704797
:1014300000207047002070470120704710B5044617
:10144000B0F840300268D279934213D91346C26B88
:101450000021FFF7C5FF022384F83030E36B2268D8
:10146000D1790B44E363B4F84030D2799B1AA4F8E5
:10147000403010BDC26B0021FFF7B2FF94F8483036
:101480004BB1022384F83030002384F84830A4F8AC
:101490004030E363EDE70323F4E72DE9F04182B048
:1014A00005460E4600F15807002400E00134032CE5
:1014B00019D807EBC40257F83480B8F1000F12D0E6
:1014C000337851790B4012799342EFD105F14403FF
:1014D000009305F1400305F13C0231462846C04720
:1014E0000128E3D810E0AB6833B1EC6C24B1337859
:1014F00003F07F03402B0AD005F1400305F13C02C5
:101500003146284600F014FE02B0BDE8F08105F136
:10151000400305F13C0231462846A0470128EBD89C
:10152000F2E710B5044601220021FFF765FF002312
:1015300084F8303010BD38B504460D464369C363A6
:10154000CB88A0F84030FFF7A8FFB8B1E98859B1BF
:101550002368DA79B4F84000FFF760FF84F84800A8
:101560002046FFF76BFF38BD00231A461946204678
:10157000FFF736FF042384F83030F4E72046FFF706
:10158000D0FFF0E708B5CA88038B9A4211D84369A7
:10159000C3630023A0F84030CA880368DB799A420D
:1015A0000AD9052380F8303000221146FFF730FFBA
:1015B00008BDFFF7B6FFFBE7062380F83030F3E7FE
:1015C00070B50546448FB0F84020A41A0368DB7953
:1015D0009C42A8BF1C46A6B2C16B33460A440021F8
:1015E000FFF704FF864206D1B5F840300344A5F862
:1015F0004030A0B270BD2846FFF793FF4FF0FF3098
:10160000F8E74FF0000CBCF1030F19DC10B40CF13B
:101610000B0450F834403CB10CF1010CBCF1030F49
:10162000F5DD4FF0FF3008E00CF10B0C00EBCC04C3
:101630002171627140F83C3000205DF8044B704726
:101640004FF0FF30704738B5044600F134050021F3
:1016500041640122FFF7DCFE638F43B194F934301B
:10166000002B09DB29462046FFF78CFF38BD2946B1
:101670002046FFF760FFF9E729462046FFF75BFFAA
:10168000F4E710B5044690F83030062B16D0072B3F
:101690002CD0052B02D0FFF744FF37E0FFF790FF77
:1016A000002833DB638FB4F840209B1A2268D2797C
:1016B00093422BDC062384F8303027E0FFF780FFCD
:1016C000002823DB04F134012046FFF7E6FE48B191
:1016D00000231A4619462046FFF782FE042384F8A9
:1016E000303013E02046FFF71CFF0FE000231A46BE
:1016F0001946FFF77BFE002384F83030636C1BB182
:1017000004F13401204698470023636410BD10B5EE
:10171000044690F83030032B09D0042B0FD0022B55
:1017200002D0FFF7FEFE01E0FFF788FE10BD0723A1
:1017300080F8303000221146FFF76AFEF6E7436C6E
:1017400013B100F13401984794F834301BB994F880
:101750003530052B03D0002384F83030E6E7D4F889
:10176000EC305B68E18EC9B220469847F3E7D0F8C9
:10177000EC30DA6AD2F8003823F4FE6343EA01134E
:10178000C2F80038704730B40B4651B9CAB1D0F82E
:10179000EC10CD6A03F1480149014C5944F400149E
:1017A0004C5113F0800F17D1002A33D0D0F8EC2021
:1017B000D16A58335B015A5842F400125A5030BC77
:1017C0007047D0F8EC10CD6A03F1480149014C593B
:1017D00024F400144C51E4E703F07F034AB1D0F83D
:1017E000EC20D16A48335B015A5842F400125A5037
:1017F000E5E748335B01D0F8EC20D16A5A5822F46F
:1018000000125A50D0F8EC20D16A5A5842F0805257
:101810005A50D4E758335B01D0F8EC20D16A5A58BB
:1018200022F400125A50D0F8EC20D16A5A5842F0F3
:1018300080525A50C3E711F0800F08D15831490146
:10184000D0F8EC30DB6AC858C0F34050704701F064
:101850007F0148314901D0F8EC30DB6AC858C0F349
:101860004050704711F0800F16D1431883F8FC20C8
:101870004AB1D0F8EC30DA6A583149018B5843F05C
:1018800000638B507047D0F8EC30DA6A5831490168
:101890008B5843F080638B50704749B1D0F8EC30DF
:1018A000DA6AD2F8043843F00203C2F80438704709
:1018B000D0F8EC30DA6AD2F8043823F00203C2F828
:1018C000043870474FF0E022D2F8883D43F47003AB
:1018D000C2F8883D7047FEE77047000010B51B4B0B
:1018E0001B4903E051F8042B43F8042B194A934297
:1018F000F8D302E0002243F8042B174A9342F9D3AD
:101900004FF0E022D2F8143D43F40073C2F8143DC6
:10191000FFF7D8FF114C02E054F8043B9847104BF6
:101920009C42F9D30F4C02E054F8043B98470E4B0D
:101930009C42F9D3FEF757FC0C4C02E054F8043BF0
:1019400098470B4B9C42F9D310BD00BF000000200C
:10195000A42300085C000020EC1B0020A423000846
:10196000A4230008A4230008A4230008A42300083B
:10197000A423000820F07F404FF0E0235861704717
:101980004FF0E022136923F0040300F00400034346
:10199000136170474FF0E022136943F002031361B3
:1019A00070474FF0E022136943F001031361704761
:1019B0004FF0E023014AC3F80C2DFEE70400FA05BE
:1019C000FEE70000034AD2F8003C43F48073C2F8FB
:1019D000003C704700300240044AD2F8003C23F03B
:1019E0000F030343C2F8003C704700BF00300240C1
:1019F0000D4A136823F44043136020B9136843F47D
:101A0000404313607047012802D0022806D0704777
:101A1000054A136843F4004313607047024A136891
:101A200043F480431360F2E7007000400A4A1368F1
:101A300043F480331360084B5B6813F4803FFAD0A3
:101A4000054A136843F400331360034B5B6813F4D7
:101A5000003FFAD0704700BF00700040000A704796
:101A6000C0B2704708B50346087878B94A887F2A1B
:101A70000DD89A76D3F8EC2092F8300040B1526835
:101A80004988C9B218469047012000E0002008BDEF
:101A90000120FCE770B504460D464888E8B94FF0D0
:101AA000FF330133DBB2E37663B3616803EB4302D8
:101AB00003EB82030D3B1944002317E00133226836
:101AC000527C9A420BD9626803EB430103EB81011C
:101AD0000A4452799042F1D103E00023EFE74FF03E
:101AE000FF33002BDDDA002030E001330A799A421F
:101AF00008D9D1F809001A018258002AF5D000202F
:101B00001070F2E7D4F8EC30DB6820469847D4F840
:101B1000D8300BB1002307E0012017E003F10B02DE
:101B2000002144F832100133032BF7D9002600E0DE
:101B30000136032E09D806F1360354F82330002B62
:101B4000F6D0698820469847F2E7012070BD1988D1
:101B5000012901D901211980C37E5BB1416803EBE2
:101B6000430003EB80030D3B0B4412685B79137059
:101B700001207047136800221A70F9E738B51C4637
:101B8000C27E02EB420302EB83020D3A43681A4421
:101B90008B8892F804C063451BD2D2F809204FEA23
:101BA000031C02EB03134D881B799D4213D252F89C
:101BB0000C3053B11D70D0F8E83013B14A888988D1
:101BC000984700232380012038BD002DF3D000204A
:101BD000FAE70020F8E70020F6E710B44468C07E7A
:101BE00000EB400C00EB8C000D382044B1F804C031
:101BF0000479A44510D201241C80D0F809008B88F8
:101C00001B01C35833B119781368197001205DF8AE
:101C1000044B70470021F7E70020F8E719880229F4
:101C200001D902211980116800230B7012685370CA
:101C3000012070471988022901D9022119801168F1
:101C400000230B7012685370012070472DE9F04F8C
:101C500089B091461D46466801EB410301EB8304C0
:101C60003119335DAB4228BF2B469A461A46884647
:101C7000484600F07AFA09EB0A0BA5EB0A05ADB26B
:101C8000335D01930027CDF81C90C14688E00136F2
:101C9000B6B2029B1B79B34237D9029BD3F80990A5
:101CA000C6EB061809EB080719F80840AC4228BF34
:101CB0002C4622463946584600F057FAA3442D1BBD
:101CC000ADB254441FFA84FA19F80830019A13444B
:101CD0009BB20193D7F807100029D8D0D7F80B4052
:101CE000AC42A8BF2C46A4B22246584600F03DFAAA
:101CF000A3442D1BADB254441FFA84FAD7F80B301D
:101D0000019A1A4493B20193C1E7DDF80C8008F1FF
:101D100001031FFA83F8049BD3F80930059A134492
:101D20001A79424537D9DF6808EB4806C6EBC60684
:101D3000BB190293BC5DAC4228BF2C462246994693
:101D40001946584600F011FAA3442D1BADB2544475
:101D50001FFA84FABB5D019A13449EB20196D9F82A
:101D60000D10A1B1D9F81140AC42A8BF2C46A4B2C5
:101D70002246584600F0F9F9A3442D1BADB2544455
:101D80001FFA84FAD9F811301E44B3B20193002629
:101D9000CDF80C807DE7069FDDF810907B1C9FB28C
:101DA00099F80430BB4221D9D9F809303A0105929B
:101DB00003EB07139E689EB13478AC4228BF2C46D3
:101DC00022463146584600F0D0F9A3442D1BADB24F
:101DD00054441FFA84FA3378019A13449BB2019356
:101DE0004FF000080697CDF8109094E7DDF81C90AE
:101DF000019BA9F80230504609B0BDE8F08F000001
:101E0000F8B506460F4614461546142A28BF142571
:101E10002A460146384600F0A8F9641B10220949F9
:101E2000301D00F0B8F908B10020F8BDA4B2082CAC
:101E300028BF082422467169781900F096F92819FC
:101E400080B2F2E7942300082DE9F84F8B46144640
:101E5000D0F8089099F80070974228BF17463A4684
:101E60004946584600F081F9E41BA4B299F800A055
:101E700000252E4605E0E41AA4B23B449FB201358A
:101E8000EDB299F80430AB421CD9D9F8058008EBC3
:101E900006008378052B1AD122460BEB0701FFF7CA
:101EA000AFFF18F8063053441FFA83FA2036034672
:101EB000B0FA80F04009002C08BF00200028DAD0DA
:101EC000002701E0ABF802A03846BDE8F88F0027F4
:101ED000FAE72DE9F84304460E4690461D464F8822
:101EE0003846FFF7BDFD81463846FFF7B7FD00F1E4
:101EF000FF3CBCF10E0F00F29280DFE80CF00813FB
:101F00003390909090909090909090901F002368C4
:101F1000C8F800301B782A88934228BF13462B80CC
:101F200001207DE06269C8F800202B885FFA89F102
:101F30002046FFF78BFE2880012071E0A368002B6C
:101F400070D0B9F1000F01D0002069E06169C8F8D4
:101F500000102A882046FFF777FF2880003818BF36
:101F600001205DE06769B9F1000F0FD10923BB7053
:101F70000423FB703B702B88042B28BF04232B8089
:101F800003237B70C8F80070012049E0D4F8F030DA
:101F90004B451CD009F1FF30E368002B44D0226987
:101FA000824243DDB18840F20942914240D186002D
:101FB00053F8200000F0E7F8431C5B00DBB23B70F5
:101FC0002A88934228BF13462B80002221E0D4F8B0
:101FD000F40000F0D8F8431C5B00DBB23B702A88A9
:101FE000934228BF13462B8000222B885B08013BBD
:101FF0009342C5DDD4F8F430995C07EB4203598075
:102000000132F2E7E3689B59995C07EB4203598080
:1020100001322B885B08013B9342F3DCB0E70020E0
:10202000BDE8F8830020FBE70020F9E70020F7E790
:102030000020F5E710B514461A88022A01D90222B9
:102040001A808988C9B2FFF7DDF92368003818BF04
:1020500001201870236800225A70012010BD08B5B5
:1020600089880122C9B2FFF7C7F9012008BD08B568
:1020700089880022C9B2FFF7BFF9012008BD00001E
:1020800010B591F801C0BCF1090F11D8DFE80CF0D0
:1020900005101010100C0E10070A064C00E0064C3C
:1020A000A04710BD054CFBE7054CF9E7054CF7E7E9
:1020B0000020F6E71D1C00084F1B0008951A0008B9
:1020C000651A0008D31E000810B54C780A2C07D0FA
:1020D0000B2C07D00CB1002001E0034CA04710BD31
:1020E000024CFBE7024CF9E7351C0008DB1B00083B
:1020F0007D1B000810B54C78012C04D0032C08D0AF
:102100005CB1002010BD4C880CB9064C06E00020E4
:10211000F8E74C8824B9044C00E0044CA047F1E7F0
:102120000020EFE76F2000085F200008352000083E
:1021300010B5864691F800C01CF0600013D10CF079
:102140001F04012C07D0022C09D004B110BD704629
:10215000FFF796FFFAE77046FFF7B6FFF6E770461F
:10216000FFF7C8FFF2E70020F0E70A44914200F1D0
:10217000FF3300D1704710B511F8014B03F8014F40
:102180009142F9D110BD034613F8012B002AFBD16F
:10219000181A0138704710B501390244904201D134
:1021A000002005E0037811F8014FA34201D0181B6D
:1021B00010BD0130F2E70000426C61636B204D619D
:1021C000676963204465627567000000426C616363
:1021D0006B204D616769632050726F6265204446D1
:1021E000552053544C494E4B2D56332076312E31C9
:1021F000302E322D6469727479000000B821000815
:10220000CC210008D01B002004000020090200009F
:10221000010100C03230220008000000120100025B
:1022200000000040501D1760000101020301000082
:102230000000000001000000000000004022000833
:102240000904000000FE0102040000000058220002
:10225000080900000000000009210BFF0000041A1B
:102260000100000000000008004000080080000895
:1022700000C0000800000108000002080000040877
:10228000000006080000080800000A0800000C080A
:1022900000000E080000100800000000F401F40126
:1022A000F401F4014C04280A280A280A280A280AFA
:1022B000280A280A280A0000910C00086F17000855
:1022C000AD070008ED08000887170008651800082A
:1022D0003718000841090008390A0008750A000883
:1022E0009B1800080000044001000002B001020930
:1022F00007000000000504000100000000E6DF0CFC
:1023000080F9370300F36F06500102070500000053
:102310000005040101000000007A030A80DE80024B
:1023200000BD0105F00002050300000000050402E5
:1023300000000000000E270780C3C9010087930337
:1023400090000203020000000005040200000000EB
:1023500000A24A0480A8120100512502C000040412
:10236000010000000004040200000000006CDC0218
:1023700000366E0100366E01C00008040000000047
:10238000000000020000000000366E0100366E0101
:1023900000366E01DF60DDD88945C74C9CD2659D53
:0423A0009E648A9F0E
:1023A4000000020840496E7465726E616C20466CD0
:1023B4006173682020202F3078303830303030304E
:1023C400302F312A3031364B612C332A3031364BA1
:1023D400612C312A3036344B612C312A3132384B5E
:1023E400672C3030322A3132384B670002FF00004C
:0C23F4000024F4000024F4000024F40095
:04000005080018DDFA
:00000001FF
