:020000040800F2
:10000000005000200D15000809150008071500080C
:100010000715000807150008071500080000000074
:1000200000000000000000000000000009150008AA
:100030000915000800000000091500087D010008EE
:100040000715000807150008071500080715000820
:100050000715000807150008071500080715000810
:100060000715000807150008071500080715000800
:1000700007150008071500080715000807150008F0
:1000800007150008071500080715000807150008E0
:1000900007150008071500080715000807150008D0
:1000A00007150008071500080715000807150008C0
:1000B00007150008071500080715000807150008B0
:1000C00007150008071500080715000807150008A0
:1000D0000715000807150008071500080715000890
:1000E0000715000807150008071500080715000880
:1000F0000715000807150008071500080715000870
:10010000071500080715000807150008071500085F
:10011000071500080715000807150008071500084F
:10012000071500080715000807150008071500083F
:10013000071500080715000807150008071500082F
:10014000071500080715000807150008071500081F
:1001500008B501F043FA074B1A681AB940F6044192
:10016000054A91820A224FF4806103481A6000F028
:100170001ABB00BF4C000020000C014038B5154CE4
:10018000154A236823B1013B23600123137038BD56
:10019000157875B140F60440104988826360137089
:1001A0004FF400610D4800F0FEFA636801336360AC
:1001B000EDE76368022B07D0E9DC002BF0D0012BC0
:1001C000E5D14FF48061EDE70421044800F0EBFA3B
:1001D0006560DCE74C00002000000020000C0140BE
:1001E00008B540F2033000F039FC1F4BD3F8083C4F
:1001F000DB0401D500F0B8F9002000F0B4F91B4889
:1002000000F0CEFB002001F0D1F9194801F0C8F947
:1002100040F2023000F022FC40F2973000F01EFC69
:1002200000224FF480731146124800F087FA01F063
:10023000C7F901F0CCF940F60443002202210E4830
:1002400000F07CFA0D4800F009F94FF48073064A7B
:100250000221C2F810380748002200F06FFA00F0BF
:1002600053F9002008BD00BF000001408C1C0008AD
:10027000A0BB0D0000080140000C0140B81C0008A4
:10028000014BD3F801007047540000202DE9F041E4
:100290001D460B780E4603F07F03212B63D14B786C
:1002A0001468013B052B5ED8DFE803F0033D5F34A3
:1002B0008E3BDFF820810DB12B882BB9062388F8FF
:1002C00000300120BDE8F081CA788B78424F43EAC4
:1002D0000223A7F808342A8821463846A7F80024C4
:1002E00001F02AFC73889BB93B78212B10D1FFF7D2
:1002F000C7FF3A4B1B68834203D8D7F80C348342BC
:1003000004D8012387F810340A23D8E7C7F8040477
:100310000323D4E72F4B1A780A2AD2D102221A706B
:10032000CFE72C4BFAE72B4A1178092917D86FF43D
:1003300009730B41DB0712D47088274B81B2A3F8F5
:100340000804092001291070BBD9D3F804340239FC
:1003500020462A8803EB812101F0EEFBB1E7012260
:10036000002100F0E5FB0020ACE71A4E3378062BA5
:1003700022D00A2B23D0032B11D00020002323707E
:10038000030AA3703378607023710023637106231E
:10039000000CE070124A2B80069B1A6091E7042340
:1003A0003370FFF76DFF0C4A01461778B2F8082446
:1003B000384600F0D6F8E1E707233370DDE7064B57
:1003C000002093F81034DAE7024B1B7823700123E6
:1003D0002B8076E708000020540000200400002055
:1003E000E503000810B51A4C2378042B02D0072B24
:1003F0002AD010BD00F088F91649B1F80804C8B930
:10040000FFF73EFF0A78412A0FD1134A1268904243
:1004100003D3D1F80C24904205D30A232370BDE8FE
:10042000104000F07DB900F079F800F079F905236B
:100430002370DEE7D1F804340238B1F8002403EB6E
:10044000802000F07BF8F0E7BDE81040FFF780BEA9
:1004500008000020540000200400002030B585B0C2
:10046000044600F0C1F84028034623482ED040F24D
:10047000E631A3F108028A422AD9392280F82720DE
:1004800080F8282080F829201C4D9B0203F100638E
:10049000C5F80C3400F080F84FF48063029305F245
:1004A0001143019304230093154B204603F11002DE
:1004B00003F11D0100F0E0FA7F222121114BC5F864
:1004C000140805B0BDE8304000F00EBC782280234F
:1004D0000A25B2FBF5F105FB1122303280F8292004
:1004E000B1FBF5F205FB12113032303180F82810E3
:1004F00080F82720C8E700BF080000205400002033
:10050000BC1B00088D02000808B5034CD4F8140881
:1005100000F0DCFAFAE700BF5400002038B5064DC1
:1005200020F47F742B6824F00304A34203D02046F8
:1005300000F0AAF82C6038BD3C000020F8B5064653
:100540000F4615460024AC4203D3BDE8F840FFF740
:1005500002BE6308A01937F8131000F05BF80234EC
:10056000F1E7642070477047094B0A4A1B68196815
:100570000A40B2F1005F0AD14FF0E022C3F3140049
:10058000C2F8080D81F30888D3F804F0FEE770473D
:10059000040000200000FE2F104B10B5D3F8E82710
:1005A000D3F8EC17D3F8F0370A4400210C481A446A
:1005B00022FA01F303F00F0303F13004392C88BF52
:1005C000373301F1040194BF04700370202900F156
:1005D000FF30EDD10022034B1A7210BD00F0FF1F57
:1005E000730800206C080020014BB3F8E007704747
:1005F00000F0FF1F38B5064DEC68FFF7F5FFB0F5CA
:10060000007F84BFEB6C1C4304F0350038BD00BF95
:100610000020024038B504460D4600F089F8FFF787
:10062000E3FFB0F5007F164B14D9164A944211D956
:100630001A6D42F001021A65258000F079F8FFF783
:10064000D3FFB0F5007F14D90D4A136D23F00103D9
:10065000136538BD1A6942F001021A61258000F065
:1006600067F8FFF7C1FFB0F5007F02D9054B9C4248
:10067000E9E7034A136923F001031361E9E700BFC7
:1006800000200240FFFF070810B5044600F050F8B4
:10069000FFF7AAFFB0F5007F194B18D9194A944209
:1006A00015D91A6D42F002021A655C651A6D42F0A6
:1006B00040021A6500F03CF8FFF796FFB0F5007FA6
:1006C00018D90F4A136D23F00203136510BD1A6980
:1006D00042F002021A615C611A6942F040021A613A
:1006E00000F026F8FFF780FFB0F5007F02D9054B38
:1006F0009C42E5E7024A136923F002031361E5E730
:1007000000200240FFFF0708034B044A5A6002F131
:1007100088325A60704700BF0020024023016745BD
:10072000024A136943F080031361704700200240BE
:1007300008B5FFF75FFFC307FBD408BD2DE9F04301
:1007400000264FF00F089C46036847684CFA06F4F1
:1007500014F0010F06F1010E1DD0072E94BF99462B
:10076000B946B4B24FEA84048ABF203CA4B2A4B212
:1007700008FA04F529EA0509A51C02FA05F501FAAB
:1007800004F42C43072E44EA090405D82346764690
:100790003C462746DAE73C467646102EF9D1036000
:1007A0004460BDE8F083C36801EA030221EA030163
:1007B00041EA024101617047062824D8DFE800F0D1
:1007C00004090E13181D2000104B1868C0F3406078
:1007D00070470E4B1868C0F3C06070470B4B186829
:1007E000C0F340707047094B1868C0F34040704731
:1007F000064B1868C0F340007047044B186AF9E7CD
:10080000024B586AF6E70020704700BF0010024014
:10081000024608B51046FFF7CFFF0028FAD008BD02
:1008200006282AD8DFE800F0040A0F14191E240055
:10083000124A136843F08073136070470F4A1368BD
:1008400043F08063F8E70D4A136843F08053F3E701
:100850000A4A136843F48033EEE7084A136843F00A
:100860000103E9E7054A136A43F001031362704785
:10087000024A536A43F0010353627047001002407A
:10088000034A536823F0030303435360704700BFD8
:1008900000100240034A536823F4701343EA804374
:1008A0005360704700100240034AD36A23F4706318
:1008B00043EA0023D362704700100240034AD36A20
:1008C00023F4704343EA0033D362704700100240C0
:1008D000034A536823F4803343EA0043536070476C
:1008E00000100240034A536823F4003343EA4043B4
:1008F0005360704700100240034A536823F440439A
:1009000043EA80335360704700100240034A536843
:1009100023F4605343EAC023536070470010024041
:10092000034A536823F4E06343EA002353607047AB
:1009300000100240034A536823F0F00343EA001317
:100940005360704700100240044B5A6818B142F4DB
:1009500080025A60704722F48002FAE700100240D9
:10096000034AD36A23F00F030343D362704700BFE7
:1009700000100240034AD36A23F0F00343EA001355
:10098000D362704700100240044BDA6A18B142F497
:100990008032DA62704722F48032FAE700100240B7
:1009A00010B504464378012B0CBF03200420FFF749
:1009B00037FFFFF72DFFA078FFF7BCFFE078FFF7C8
:1009C000AFFF2079FFF7A2FF6079FFF795FF207B4B
:1009D000FFF7BAFFA07900F009FE2078FFF75AFF71
:1009E0006078FFF775FFE07901282DD9FFF7B8FF90
:1009F000207A08B1FFF7C8FF607A08B1FFF7BAFFA5
:100A0000A07A30B1FFF750FF0120FFF709FFFFF791
:100A1000FFFEE07A30B1FFF751FF0220FFF700FF41
:100A2000FFF7F6FE0020FFF7FBFEFFF7F1FE0220C6
:100A3000FFF726FF2269064B1A606269054B1A60B0
:100A4000A269054B1A6010BDFFF74CFFD0E700BF4D
:100A500040000020480000204400002001224309FB
:100A600003F1804303F50433196800F01F0082404E
:100A70000A431A60704700002DE9F0411E460368E2
:100A80001746054688469847069B079A0361002348
:100A90004261BDF82020C0E900870283084AC0E90E
:100AA0003C33C0F88020074AC0E93633C267064AA3
:100AB000C0E93833C0F8EC50C6608267BDE8F08109
:100AC000150D0008770D0008FB0D0008D0F8EC307C
:100AD0005B6A184710B4D0F8EC40A468A44610BC78
:100AE000604737B50025044603684583DB792A460D
:100AF00029460095FFF7EEFFD4F8EC3029465B68F5
:100B000020469847236A1BB103B0BDE83040184720
:100B100003B030BD10B4D0F8EC40E469A44610BC7A
:100B2000604710B4D0F8EC40246AA44610BC60477B
:100B3000D0F8EC301B691847D0F8EC309B691847A7
:100B4000D0F8EC305B69184710B50268B0F8403057
:100B5000D17904468B42C26B11D90B460021FFF7B5
:100B6000D9FF022384F830302368DA79E36B134429
:100B7000E363B4F840309B1AA4F8403010BD002164
:100B8000FFF7C8FF94F84830C3F1030384F830300E
:100B9000002384F84830A4F84030E363EEE72DE901
:100BA000F74F04460D46064600F1200A00F13C07C7
:100BB00000F1400800F14409D6F858B0BBF1000F2D
:100BC0000AD1A36803BB43463A462946204603B0F0
:100BD000BDE8F04F00F048BC2B7896F85D1096F811
:100BE0005C200B409A4203D008365645E4D1E8E732
:100BF00043463A4629462046CDF80090D84701287A
:100C0000F2D803B0BDE8F08FE66C002EDBD02B7875
:100C100003F07F03402BD6D143463A46294620466F
:100C2000B0470128CFD8ECE710B5012200210446D7
:100C3000FFF77EFF002384F8303010BD70B50368E5
:100C4000B0F84020448FDB79A41A9C42A8BF1C4610
:100C5000C16BA6B20A44334600210546FFF761FF87
:100C6000864205D02846FFF7DFFF4FF0FF3070BD0A
:100C7000B5F84030A0B21E44A5F84060F7E738B59B
:100C800043690446C3638B79CA790D4643EA02235C
:100C9000A0F84030FFF783FF08B3EB88B3B1B4F896
:100CA000402021689342C9790ED932B1B2FBF1F3E9
:100CB00001FB1322B2FA82F25209204684F848203E
:100CC000BDE83840FFF740BF0022F6E71A46194654
:100CD0002046FFF71FFF042384F8303038BD20463C
:100CE000BDE83840FFF7A0BF70B50446002500F10D
:100CF000580656F8350028B10135042DF9D14FF0CA
:100D0000FF3070BD04EBC50484F85C1084F85D20EE
:100D1000A365F6E770B5002504460122294645641F
:100D200000F13406FFF70CFF628F2AB931462046E6
:100D3000BDE87040FFF7A3BF94F93430002BF5DB1A
:100D4000238B934204D22046BDE87040FFF76CBF6E
:100D50006369A4F84050E36323682946DB792046A1
:100D600093422CBF0623052384F830302A46BDE881
:100D70007040FFF7E5BE10B590F830300446062B02
:100D800013D0072B28D0052B22D1FFF757FF0028BF
:100D90000ADBB4F84020638F9B1A2268D279934211
:100DA00002DC062384F8303010BDFFF747FF00282F
:100DB000FADB204604F13401FFF7F1FE38B10023DD
:100DC00020461A461946FFF7A5FE0423EAE7204607
:100DD000BDE81040FFF728BF00231A461946FFF769
:100DE000A0FE002384F83030636C1BB1204604F170
:100DF0003401984700236364D6E710B590F830308B
:100E00000446032B07D0042B0ED0022B23D1BDE8C0
:100E10001040FFF799BE0723002280F830301146BA
:100E2000BDE81040FFF78CBE436C13B100F13401F4
:100E3000984794F8343053B994F83530052B06D1DF
:100E4000E18ED4F8EC3020465B68C9B298470023A5
:100E500084F8303010BDBDE81040FFF7E5BE08B59E
:100E60000B7873B949887F2909D8D0F8EC30C9B21A
:100E7000817693F830200AB15B68984701231846C1
:100E800008BD0023FBE7F8B50D4649880446E1B1EB
:100E900003680D26587C0023984201D80020F8BD35
:100EA000626806FB0322577901338F42F4D1E3765F
:100EB000002318461179994208D9D2F809101E0169
:100EC000715801B108700133F4E7C176D4F8EC3001
:100ED0002046DB689847D4F8D8300BB90120DEE70C
:100EE000002304F1D406A3652366A366236704F1F7
:100EF000E40756F8043F13B1204669889847BE427C
:100F0000F7D1EBE71988012984BF01211980C37E3D
:100F100011682BB142680D2000FB032313F8083C35
:100F200001200B70704770B51C460D23C27E5A43DA
:100F300043680D3A13441D798A88954219D9D3F82C
:100F40000950160105EB02124B8812799A4210D90A
:100F5000AA5952B11370D0F8E83013B14A88898881
:100F6000984700230120238070BD002BF3D010464A
:100F7000FAE70020F8E730B50D25C47E40686C43E1
:100F80000D3C20448D880479A5420CD201241C809C
:100F90008B88D0F809001B011B5803B11B78012076
:100FA0001268137030BD0020FCE719880120022967
:100FB00084BF02211980002311680B7012685370DE
:100FC000704710B514461A88022A84BF02221A807C
:100FD0008988C9B2FFF7B0FD003818BF0120002290
:100FE00023681870236801205A7010BD08B58988DD
:100FF0000122C9B2FFF79CFD012008BD08B5898810
:101000000022C9B2FFF794FD012008BD2DE9F04F81
:101010009B464B881746DEB21B0A032B354689B028
:1010200000F05A8105D8012B29D0022B35D00020A1
:1010300030E00F2BFBD18468002CF8D0002EF6D1C5
:101040004369BBF80060136094F800802146B04506
:1010500028BFB046184642460193A6EB080600F0AA
:101060006BFD94F80090B6B26B0122790293EBB25B
:101070009A4200F2E380019BA3F80290EAE0036841
:1010800013601B78BBF80020934228BF1346ABF8CF
:101090000030012009B0BDE8F08F43694768136054
:1010A00003930D235E43BBF80040BD5DBB19A54211
:1010B00028BF254619462A460398059300F03CFDB3
:1010C0000022039B641BBE5D2B44A4B20292059ACE
:1010D0001179BDF80820914204D8039B5E80ABF8DB
:1010E0000050D6E7029A029912010692059AD2F8A8
:1010F000092002EB0112D2F80880B8F1000F13D0DA
:1011000098F800701846A74228BF274641463A463D
:1011100000F012FD034698F80020E41B3B443244E3
:101120002F44A4B2BDB296B200220492059A069949
:10113000D2F809200A441079BDF81010884202D86C
:10114000029A0132C2E715200499D2F80C8000FB04
:1011500001F718F8079008EB0702A14528BFA14640
:101160001846019208EB07014A4600F0E5FC0346E9
:1011700018F80720A4EB0904324496B2019A4B44B4
:10118000D2F80D10A944A4B21FFA89F5A9B1D2F87A
:1011900011801846A045A8BFA0461FFA88F73A4616
:1011A00000F0CAFC0346019AE41BD2F811203B442C
:1011B00032442F44A4B2BDB296B20027019A1179ED
:1011C000BAB2914202D8049A0132AEE7019AC7EB53
:1011D0000719D2F809A018461AF809200AEB0908DD
:1011E000A24228BF22464146079200F0A5FC0346D2
:1011F000079AD8F80710A41A13442A4495B21AF88B
:101200000920A4B2324496B2B1B1D8F80BA0184666
:10121000A245A8BFA2461FFA8AF94A4600F08CFCF4
:101220000346D8F80B20A4EB09044B443244A944EC
:10123000A4B21FFA89F596B20137BFE7D4F805309A
:10124000029A039303EB020A9AF80220052A08D0B7
:101250004FF00008B8F1000018BF0120ABF8008083
:1012600018E7142E374628BF1427019B3A464344FB
:1012700018465146049300F05FFC102246490AF1DB
:10128000040000F06FFC049B48B1DDE902239B5C85
:101290004B441FFA83F9002EDAD1374615E0F21BD2
:1012A00092B2082A28BF08220492D819DAF814103A
:1012B00000F042FC049A1744DDE902239B5CBFB2B4
:1012C0004B441FFA83F9002FE5D0F61B4744B6B212
:1012D0001FFA87F80135C7E646697DB90923B3705F
:1012E0000423F3703370BBF80030042B28BF0423B1
:1012F000ABF80030032373703E60CAE6D0F8F030DC
:10130000AB421CD1D0F8F440204600F023FC013061
:101310004000C0B23070BBF80030834228BF0346A3
:10132000ABF800300023BBF800205208013A9A4283
:10133000E0DDE15C06EB430251800133F3E7C46872
:10134000013D002C3FF473AE0369AB427FF76FAEF3
:1013500040F209438A889A427FF469AE54F82540E6
:10136000204600F0F7FB01304000C0B23070BBF8FF
:101370000030834228BF0346ABF800300023BBF89F
:1013800000205208013A9A42B4DDE15C06EB4302C8
:1013900051800133F3E700BFA81C00081988012021
:1013A000022984BF02211980002311680B70126882
:1013B0005370704730B44C78092C12D8DFE804F031
:1013C00005111111110D0F11090B074CA44630BC6A
:1013D0006047064CFAE7064CF8E7064CF6E7064C81
:1013E000F4E7002030BC7047AB0F0008050F000881
:1013F000870E00085F0E00080D10000810B44C782E
:101400000A2C06D00B2C06D03CB9054CA44610BCC7
:101410006047044CFAE7044CF8E7002010BC704722
:101420009D130008770F0008270F000810B44C78B0
:10143000012C04D0032C07D01CB9084C08E04C88C0
:101440004CB1002010BC70474C88002CF9D1044CE2
:10145000A44610BC6047034CFAE700BFC30F000866
:10146000ED0F0008FD0F000810B40C7814F0600FA9
:101470000FD104F01F04012C05D0022C06D044B972
:1014800010BCFFF797BF10BCFFF7B8BF10BCFFF749
:10149000CDBF002010BC704708B540F29730FFF771
:1014A000DDFA0022064B0748C3F8402CC3F8502C45
:1014B000C3F8442C4FF41C42C3F8402C08BD00BFB5
:1014C00000500040780800200132521001EB420227
:1014D000914200D1704731F8023B40F8043BF7E7F6
:1014E000034670B502F00104520801EB8205A942DF
:1014F00004D114B10B7800F8123070BD31F8046BD0
:1015000023F8026BF3E7FEE77047000038B51A4A8C
:101510001A4B1B498B421AD300211A4A93421BD300
:101520004FF0E022D2F8143D174C43F40073174DEE
:10153000C2F8143DAC4212D3154C164DAC4212D336
:10154000FEF74EFE144C154DAC4210D338BD52F888
:10155000040B43F8040BDDE743F8041BDEE754F803
:10156000043B9847E6E754F8043B9847E6E754F80D
:10157000043B9847E8E700BFEC1C0008000000208F
:101580004C00002094090020EC1C0008EC1C000812
:10159000EC1C0008EC1C0008EC1C0008EC1C00080B
:1015A0004FF0E02320F07F40586170474FF0E02279
:1015B000136900F0040023F0040303431361704730
:1015C0004FF0E022136943F00203136170474FF0BC
:1015D000E022136943F00103136170474FF0E023E9
:1015E000014AC3F80C2DFEE70400FA05034A13680C
:1015F00023F0070303431360704700BF002002403D
:10160000024B41F08001C3F84C1C70470050004071
:101610003E2A14D9013AC2F3441302F4787202F15B
:10162000200043F02003094A9B02D2F8502C9BB2C1
:1016300092B202EBC101064A490053507047013291
:10164000530822F0010290B2EDE700BF00500040C5
:101650000C6000402DE9F34106464FF0C060444C59
:1016600001F07F08CDE900404FEA880404F180448E
:1016700004F5B844206802AD20F4E04020F07F007B
:1016800040EA080080B22060206805EB420232F890
:10169000082C20F4EC4020F07000104349B280B2D6
:1016A0000029089F20604FEAC8022ADBB8F1000F2A
:1016B00027D03049B58BD1F8501C304689B20A4446
:1016C0002D4952008D501A464146FFF7A1FF002FC9
:1016D00047D12368054423F4415323F030031B040E
:1016E0001B0C2360236823F4804323F070039BB218
:1016F00083F4405343F4004343F080032360B583F5
:101700002CE01C48B6F81CC0D0F8500C80B2104435
:10171000400000F1804000F5C040C0F800C01FB19B
:101720000C2000FB0860876720689C4420F4E040A0
:1017300020F030000004000C20602568002925F40A
:10174000E04525F04005ADB285F0200545F40045A3
:1017500045F080052560A6F81CC0AADA02B0BDE8F5
:10176000F0810C2303FB0868C8F87C70B1E700BF68
:1017700000020004005000400860004048F2800170
:1017800070B50B4A0B4E0C4D0C4C136833400B4399
:101790009BB2136013682B400B439BB242F8043B8F
:1017A000A242F2D10368DB7920335B00838370BDF2
:1017B000045C0040BF8FFFFF8FBFFFFF205C004035
:1017C00010B500293ED1334C48F28000D4F8003CDB
:1017D00023F4E04323F040039BB202BB83F02003D9
:1017E0001843C4F8000C4FF44052890001F18041C5
:1017F00001F5B8410B6823F4415323F030031B0477
:101800001B0C0B600B6823F4804323F070039BB226
:10181000534043F4004343F080030B6030E083F017
:1018200010031843C4F8000C890001F1804101F550
:10183000B8410B684FF4805223F4804323F07003C7
:101840009BB2E5E70B0621D501F07F039B0003F176
:10185000804303F5B843196848F2800021F4E04161
:1018600021F0400189B262B981F02001084318607B
:101870001A6822F4E04222F030021204120C1A60BC
:1018800010BD81F0100108431860F9E7002ACBD1A0
:10189000A9E700BF005000400B060ED501F07F0104
:1018A000890001F1804101F5B841086800F030007D
:1018B000102814BF002001207047890001F18041E9
:1018C00001F5B841086800F44050B0F5805FF0E7DA
:1018D0000B0612D40B4B0C485A54890001F180417D
:1018E00001F5B8410B6803409BB23AB183F4005351
:1018F00043F4004343F080030B60704783F440538C
:10190000F6E700BF8C0900208FBFFFFF08462DE9D6
:10191000F0411E4600F07F039D0005F1804505F56E
:10192000B84511462A6802F03002302A2CD0DFF880
:101930005C803246D8F8504CDF00A4B204EBC304FC
:10194000640004F1804404F5C0442088400000F1A4
:10195000804000F5C040FFF7B7FDD8F8503C9BB27F
:101960001F440B4B7F00DE51296821F4E04121F038
:10197000400189B281F0300141F4004141F0800121
:1019800029603046BDE8F0810026FAE700500040AB
:1019900004600040F8B58D0005F1804505F5B845B7
:1019A0001C462B680E4603F44053B3F5405F1046C7
:1019B0003FD0214FCA00D7F8503C9BB203EBC10384
:1019C0001E495B00CB58C3F30903A34207DAD7F8DB
:1019D000503C9BB213445B00CC58C4F30904164B33
:1019E000D3F8503C9BB21A44154B5200995A2246E8
:1019F000490001F1804101F5C041FFF771FD2B68FD
:101A000023F0F0031B051B0D43F080032B600D4BEF
:101A10009B5D63B9296821F4804121F0700189B28E
:101A200081F4405141F4004141F080012960204699
:101A3000F8BD0024FBE700BF005000400C600040F0
:101A4000086000408C090020F8B53A4B0446D3F8F2
:101A5000446C770509D54FF6FF32C3F8442C402378
:101A60008383BDE8F840FFF73CB835041ED506F087
:101A70000F07BD0005F1804505F5B84516F01002C9
:101A80002B683CD0190542D500F1340208233946B1
:101A9000FFF780FF022207EB470313441E3354F87D
:101AA0002330002B35D0394620469847320507D5DC
:101AB0004FF2FF721F4BC3F8442C636A03B198477F
:101AC000F30407D54EF6FF721A4BC3F8442CA36AF1
:101AD00003B1984716F4007FE36A164D05D04FF620
:101AE000FF52C5F8442CEBB19847E36AD3B1114AD1
:101AF000D2F8403C43F40073C2F8403CF8BD23F0F8
:101B0000F0031B051B0D43F400432B60C3E70122C8
:101B1000C1E72B6823F0F0031B051B0D43F0800386
:101B20002B60C3E7D5F8403C23F40073C5F8403C74
:101B3000E4E700BF005000400A44914200F1FF3347
:101B400000D1704710B511F8014B914203F8014FD5
:101B5000F9D110BD034613F8012B002AFBD1181A46
:101B60000138704710B501390244904201D100207C
:101B700005E0037811F8014FA34201D0181B10BDF6
:101B80000130F2E7426C61636B204D61676963204D
:101B9000446562756700426C61636B204D616769E3
:101BA000632050726F6265204446552076312E3195
:101BB000302E322D6469727479000000841B000895
:101BC000961B00086C080020090000200902000094
:101BD000010100C032EC1B000812010002000000ED
:101BE00040501D17600001010203010000000000C9
:101BF0000100000000000000FC1B000809040000B8
:101C000000FE01020400000000111C000809000091
:101C10000009210BFF0000041A0100000401000468
:101C200000020200000000000000000000A24A04C0
:101C30000051250200A24A0407010004000202012B
:101C4000000000000000000000A24A04005125022C
:101C500000A24A0407010004000202040104060075
:101C60000000000000A24A040051250200A24A041C
:101C70000101000000000000000000000000000062
:101C800000366E0100366E0100366E010701000459
:101C900000030200000000000000000000A24A044F
:101CA0000051250200A24A04DF60DDD88945C74CF7
:101CB0009CD2659D9E648A9F9914000801160008B5
:101CC000551600087D170008C1170008D118000834
:101CD000991800080D19000895190008491A0008FC
:0C1CE000000000000000000000000000F8
:101CEC0001000000002000080240496E7465726E0D
:101CFC00616C20466C6173682020202F307830385E
:101D0C003030303030302F382A3030314B612C307D
:101D1C0030302A3030314B6700000000FFFFFFFFEE
:0C1D2C0000127A0000127A0000127A0007
:040000050800150DCD
:00000001FF
